:100000000C94F3010C947E160C9453160C94281641
:100010000C94FD150C94D2150C94A7150C947C151A
:100020000C9451150C9424020C9424020C94240278
:100030000C9424020C9424020C9424020C942402A8
:100040000C9424020C94DF110C9424020C942402CE
:100050000C9424020C9424020C9424020C94071592
:100060000C9424020C94D3160C94A9160C9424021C
:100070000C9424020C9424020C9424020C94240268
:100080000C94B1110C9424020C9424020C942402BC
:100090000C9424020C9424020C9424020C94F10F6E
:1000A0000C9424020C9424020C9483110C942402CA
:1000B0000C9424020C9424020C9424020C945511E8
:1000C0000C9424020C9424020C9424020C94240218
:1000D0000C9424020C9424020C9424020C94240208
:1000E0000C9424025B14601465146F147914F214D8
:1000F00083148B1493149D14A714B114C014CA1440
:10010000F214D414DE14E8140E1811180018041890
:1001100008184818151819181F18231827182D180B
:100120003118351848183B183F1843180C94120C16
:100130000C94E8140C948E020C94BD0F0C94931440
:100140000C9459130C9460140C9487130C94430A68
:100150000C9400180C94FC020C94E80A0C942D18D2
:100160000C94BE0A0C941F130C9408180C9488026B
:100170000C94F5040C945D040C9485020C94E50A2F
:100180000C943E090C94C90F0C9479140C94AB0F89
:100190000C948B140C942C020C946D130C94F3029D
:1001A0000C944A050C943E0C0C944E020C942718A7
:1001B0000C9423180C943B180C94EB0A0C945B14CD
:1001C0000C9465140C949D140C944A130C94831491
:1001D0000C9466050C9426020C94F50A0C94BA0A49
:1001E0000C94B10F0C9448180C94B1140C94C014D6
:1001F0000C94BB0A0C9435180C94FC0A0C94F00275
:100200000C9442030C9443180C944F1B0C94C80A92
:100210000C943F180C940E180C9465080C94F2146E
:100220000C94270C0C94B0020C94D30A0C941F1855
:100230000C94010B0C94CA140C946F140C94C10A06
:100240000C9404180C94E7020C9419180C943C0CB0
:100250000C9415180C94E4020C9425050C942902B6
:100260000C9411180C9470090C94A7140C94AA0601
:100270000C9482020C94D4140C9431180C94F9024E
:100280000C94EE0A0C94B70F0C94BC050C94F80A6D
:100290000C94F6020C940E040C948B020C94F20A4B
:1002A0000C9420130C9438040C94EA020C94ED0284
:1002B0000C947B130C94C30F0C94D4130C94DE1485
:1002C0000C942F1200002100240027002A002D008A
:1002D0003000330001010000040107010A010000A1
:1002E0002200250028002B002E00310034000201DE
:1002F0000000050108010B0100000A0B02090C0DAA
:100300000E080703040100000000000000000000C8
:1003100000000000000000000000000000000000DD
:10032000000000001211100000000000000000009A
:1003300000000000000000000000000000000102BA
:1003400010202008081020401020408002010201E7
:10035000080402010102040810204080804020109F
:1003600008040201800402018040201008040201F8
:100370000804020101020408102040800102040860
:1003800010204080000020002300260029002C00BF
:100390002F003200000100000301060109010505DC
:1003A0000505070508080808020202020A0A0808EB
:1003B0000404040401010101010101010303030319
:1003C00003030303040707070C0C0C0C0C0C0C0CA8
:1003D0000202020206060606060606060B0B0B0BB9
:1003E0000B0B0B0B4F1B11241FBECFEFD1E2DEBF57
:1003F000CDBF00E00CBF15E0A0E0B2E0E0EFF2E41A
:1004000000E00BBF02C007900D92A631B107D9F7EB
:100410002DE0A6E1B5E001C01D92AB34B207E1F7D3
:1004200011E0C3EFD1E000E006C021970109802F61
:10043000FE010E941D1FC23FD10780E00807A9F7F7
:100440000E94DB180C9476210C94000080EF92E05F
:10045000089581E193E00895FC01DB014D915D91E8
:100460006D917C91139742835383648375831496B3
:100470004D915D916D917C9117974683578360876D
:10048000718718968D919D910D90BC91A02D8287BA
:100490009387A487B5878CE090E00895DC01FB0189
:1004A00012963C91129713962C91139714969C9147
:1004B000149715968C9115973083218392838383AB
:1004C00016963C91169717962C91179718969C9113
:1004D000189719968C91199734832583968387836F
:1004E0001A963C911A971B962C911B971C969C91DF
:1004F0001C971D968C9130872187928783878CE08B
:1005000090E008958FE193E0089580E493E00895EA
:1005100086E593E0089587E793E00895FC01DB0109
:100520004D915D916D917C911397428353836483C8
:10053000758314964D915D916D917C9117974683CB
:1005400057836087718718968D919D910D90BC910E
:10055000A02D82879387A487B5878CE090E00895CB
:10056000DC01FB0112963C91129713962C91139784
:1005700014969C91149715968C911597308321832E
:100580009283838316963C91169717962C91179712
:1005900018969C91189719968C91199734832583F6
:1005A000968387831A963C911A971B962C911B97DA
:1005B0001C969C911C971D968C9130872187928761
:1005C00083878CE090E008958CE893E0089586E1BD
:1005D00092E008958DEA93E008958EEC93E00895FB
:1005E00081EE93E0089582E094E008958BE194E039
:1005F00008958CE394E00895FC01DB014C9150E0F8
:1006000060E070E0428353836483758311968C911C
:100610001197582B428353836483758312968C9170
:100620001297682B428353836483758313968C914E
:100630001397782B428353836483758314964C916C
:10064000149750E060E070E04683578360877187BD
:1006500015968C911597582B468357836087718721
:1006600016968C911697682B4683578360877187FF
:1006700017968C91782B468357836087718788E023
:1006800090E00895DC01FB0112968C911297808313
:1006900013968C911397818314968C91149782836F
:1006A00015968C911597838316968C911697848353
:1006B00017968C911797858318968C911897868337
:1006C00019968C91878388E090E008958F929F928D
:1006D000AF92BF92CF92DF92EF92FF920F931F9350
:1006E000FC01DB01C380C294C69427E0C2228C2C9B
:1006F000912CA12CB12C8D929D92AD92BC9213970E
:10070000048110E020E030E043E0000F111F221FC1
:10071000331F4A95D1F768017901C828D928EA28FA
:10072000FB28CD92DD92ED92FC921397458150E02B
:1007300060E070E01BE0440F551F661F771F1A959D
:10074000D1F78A019B010C291D292E293F290D93E0
:100750001D932D933C93139746814F7050E060E0BA
:1007600070E083E1440F551F661F771F8A95D1F70C
:10077000402B512B622B732B4D935D936D937C9388
:100780001397868182958F7007810F7710E020E0A4
:1007900030E094E0000F111F221F331F9A95D1F70C
:1007A000082B0115110521053105A1F00058134052
:1007B0002109310997E1000F111F221F331F9A955C
:1007C000D1F7042B152B262B372B0D931D932D932F
:1007D0003C9313974781407850E060E070E0742FBD
:1007E0006627552744270D911D912D913C91139714
:1007F000402B512B622B732B4D935D936D937C9308
:10080000139788E090E01F910F91FF90EF90DF9099
:10081000CF90BF90AF909F908F900895EF92FF92EE
:100820000F931F93CF93DF938C017B01BC016E5F0D
:100830007F4FC7010E946603EC01B8016A5F7F4FDA
:10084000C7018C0F9D1F0E946603C80FD91FB801F6
:10085000665F7F4FC7018C0F9D1F0E9466038C0F40
:100860009D1FDF91CF911F910F91FF90EF90089501
:10087000EF92FF920F931F93CF93DF937C018B0135
:1008800002960E940E04EC01B801680F791FC7019F
:1008900040960E940E04C80FD91FB8016C0F7D1F2F
:1008A000C7014E960E940E048C0F9D1FDF91CF91C1
:1008B0001F910F91FF90EF900895EF92FF920F9389
:1008C0001F93CF93DF937C01EB0102960E940E04ED
:1008D0008C01BE01680F791FC70140960E940E046B
:1008E000800F911FDF91CF911F910F91FF90EF909B
:1008F00008958F929F92AF92BF92CF92DF92EF9224
:10090000FF92CF93DF93EC014A015B01DB01CA0147
:1009100057E1B595A795979587955A95D1F799275A
:10092000AA27BB270097A105B10521F080589C4F4D
:10093000AF4FBF4F188219821A82B501A40125E07A
:10094000440F551F661F771F2A95D1F74B83B501BA
:10095000A40133E075956795579547953A95D1F77A
:100960004C83B501A401EBE07595679557954795C4
:10097000EA95D1F74D83B501A401F3E1759567952B
:1009800057954795FA95D1F7242F2F70AC01BD01EB
:1009900034E0440F551F661F771F3A95D1F7422B5D
:1009A0004E836C017D0144E0F594E794D794C7949D
:1009B0004A95D1F720E030E0A901C501B4010E94B9
:1009C000391F87FD02C0CF8203C08C2D80688F83C2
:1009D00088E090E0DF91CF91FF90EF90DF90CF9093
:1009E000BF90AF909F908F900895EF92FF920F93DA
:1009F0001F93CF93DF937C018B01FC0142815381D4
:100A000064817581C8010E947904EC01F701468177
:100A1000578160857185C8018C0F9D1F0E947904E4
:100A2000C80FD91FF7014285538564857585C801B4
:100A30008C0F9D1F0E9479048C0F9D1FDF91CF9119
:100A40001F910F91FF90EF900895EF92FF920F93F7
:100A50001F93CF93DF937C018B0102960E94F504D4
:100A6000EC01B801680F791FC70140960E94F50498
:100A7000C80FD91FB8016C0F7D1FC7014E960E9489
:100A8000F5048C0F9D1FDF91CF911F910F91FF9067
:100A9000EF900895EF92FF920F931F93CF93DF9300
:100AA0007C01EB0102960E94F5048C01BE01680FE7
:100AB000791FC70140960E94F504800F911FDF91B6
:100AC000CF911F910F91FF90EF9008954F925F92F9
:100AD0006F927F928F929F92AF92BF92EF92FF920E
:100AE0000F931F93CF93DF9300D01F92CDB7DEB744
:100AF0007C018B01FB018191BF01F7018283CE0153
:100B000001960E94AF1289819A81AB81BC814C0110
:100B10005D01F5E08F0E911CA11CB11CA8014C5F7A
:100B20005F4FFA0125E030E02901612C712C481457
:100B300059046A047B0428F4618161932F5F3F4F5D
:100B4000F3CFF801E80FF91F1482F70154834383B0
:100B500005960F900F900F900F90DF91CF911F91FE
:100B60000F91FF90EF90BF90AF909F908F907F90EC
:100B70006F905F904F9008954F925F926F927F9227
:100B80008F929F92AF92BF92CF92DF92EF92FF929D
:100B90000F931F93CF93DF93CDB7DEB72C970FB68C
:100BA000F894DEBF0FBECDBF7C018B01DB018C91C1
:100BB00090E0F7019383828311962C91922B93837B
:100BC00082836E5F7F4FCE0101960E94AF128980B3
:100BD0009A80AB80BC8024013501F6E04F0E511C99
:100BE000611C711C98012B5F3F4FF90186E090E07A
:100BF000AC0160E070E0441555056605770520F40A
:100C0000418141930196F4CFF801E80DF91D158259
:100C1000D70115963C932E931497B4016A5F7F4FCA
:100C2000600F711FCE0105960E94AF12BAE08B0EC5
:100C3000911C4D805E806F807884A401092C000C8B
:100C4000660B770B440D551D661D771DD801A80D49
:100C5000B91DCD01801B910B5C01C12CD12CA416B8
:100C6000B506C606D70628F48D91FD01329780831C
:100C7000F0CF5401A40CB51CB8016A0D7B1DFB011B
:100C800031971082C4010197800F911FF70197835C
:100C90008683CE0109960E94AF1295012C5F3F4FCB
:100CA00089859A85AB85BC852901032E000C6608D1
:100CB0007708480E591E6A1E7B1EF5013396E00F19
:100CC000F11FA9014A01A12CB12C84149504A6049A
:100CD000B70428F4618161934F5F5F4FF3CF820FB8
:100CE000931FF801E80FF91FDF0111971C922150A3
:100CF0003109020F131FD70119961C930E931897F1
:100D00002181428150E060E070E0BA01552744271C
:100D1000522B2081422B2381722BF701428753876C
:100D20006487758704962C960FB6F894DEBF0FBEC5
:100D3000CDBFDF91CF911F910F91FF90EF90DF908A
:100D4000CF90BF90AF909F908F907F906F905F906B
:100D50004F9008952F923F924F925F926F927F92A1
:100D60008F929F92AF92BF92CF92DF92EF92FF92BB
:100D70000F931F93CF93DF93CDB7DEB760970FB676
:100D8000F894DEBF0FBECDBF8C016B01DB018D90EF
:100D90009D90AD90BC90FC0182819381A481B5812E
:100DA00088159905AA05BB0570F4B401660F771F75
:100DB000660F771F828593850E94621FD8011B965C
:100DC0009C938E931A97F80182829382A482B582B3
:100DD0009601812C912C540144E050E0B8016A5FE7
:100DE0007F4F2C5F3F4FF80182819381A481B581B1
:100DF000FA0134961F0188169906AA06BB0650F51B
:100E0000D9011196FC90119712968C9190E0A0E078
:100E1000B0E0DC01992788279F29F901F0808F290C
:100E2000F380BF29F80186839783A087B187DA0111
:100E3000A101149782859385A80FB91F84E0FB0157
:100E400001900D928A95E1F7FFEF8F1A9F0AAF0A82
:100E5000BF0AC7CF4601840E951ED4018C9111960E
:100E60009C91119712964C901297512C612C712CD9
:100E7000320155244424592A482A13968C91782A01
:100E80005F01F80184859585A685B785841595054C
:100E9000A605B70570F4B201660F771F660F771FBE
:100EA000848995890E94621FD80155969C938E93E0
:100EB0005497F8014486558666867786C401412C8E
:100EC000512C32019801205F3F4FD8011C964D9163
:100ED0005D916D917C911F97F501349644165506EE
:100EE0006606770698F5DC011596FC901597169620
:100EF0004C91169750E060E070E0BA015527442706
:100F00005F291496FC9014974F291796FC907F291F
:100F1000D80150964D935D936D937C9353975F01E9
:100F2000AC014819590954960D90BC91A02DA40FFD
:100F3000B51F44E0F90101900D924A95E1F7BFEF2A
:100F40004B1A5B0A6B0A7B0A0496BFCFD601AA0D27
:100F5000BB1D8C9111969C91119712968C901297B3
:100F6000912CA12CB12C540199248824992A882AE7
:100F700013968C91B82A7F01F80186899789A08DF4
:100F8000B18D88159905AA05BB0560F4B401660FFB
:100F9000771F848D958D0E94621FD8015D969C936A
:100FA0008E935C97F801868A978AA08EB18E212C49
:100FB000312C812C912C54019801265E3F4F3A87A9
:100FC0002987F80186899789A08DB18D88169906A1
:100FD000AA06BB0608F05FC0B6016E0D7F1DCE01EC
:100FE00001960E94AF1297012C5F3F4F388B2F87DD
:100FF00049815A816B817C81C901330FAA0BBB0BDC
:101000002C013D01440E551E661E771E4B865C86E4
:101010006D867E8623E0E20EF11CF601EE0DFF1DCB
:101020002F853889C901A0E0B0E04B845C846D84D1
:101030007E8484159505A605B70528F4A181A193A2
:101040002F5F3F4FEFCF6F847888460D571DF60115
:10105000E40FF51F31971082C30101978C0D9D1D80
:10106000D8015B969C938E935A977A015C96ED918A
:10107000FC915D97E20DF31DA985BA858D919C9138
:1010800091838083BFEF8B1A9B0AAB0ABB0AE2E015
:101090002E0E311C96CFC70160960FB6F894DEBFB6
:1010A0000FBECDBFDF91CF911F910F91FF90EF90B9
:1010B000DF90CF90BF90AF909F908F907F906F9078
:1010C0005F904F903F902F9008954F925F926F9254
:1010D0007F92AF92BF92CF92DF92EF92FF920F93E7
:1010E0001F93CF93DF93EC018B018A81FB018083F7
:1010F0008B8181838C8182838D818383DB0140E0BE
:1011000050E0BA01E4E0F0E01496CA80DB80EC80A5
:10111000FD80CF0104964C155D056E057F05C8F472
:101120002A853B85E20FF31F3497D080F18032810E
:101130002381DC921196FC92119712963C931297A0
:1011400013962C931397FC014F5F5F4F6F4F7F4FA8
:10115000DBCF5F01A00EB11E2C85F50120832D850C
:1011600021832E8522832F852383D50140E050E003
:10117000BA01CC84DD84EE84FF849C012C5F3F4F58
:101180004C155D056E057F05F8F4CD018A199B09A4
:10119000EC88FD888E0D9F1DFC01D080E180F280DF
:1011A00083811496DC9214971596EC9215971696F7
:1011B000FC92169717968C931797C9014F5F5F4F54
:1011C0006F4F7F4F1496D5CFF801E80FF91F8E8926
:1011D00080838F898183888D8283898D8383790140
:1011E000A12CB12C412C512C32018E899F89A88DC4
:1011F000B98D481659066A067B0680F5EC8DFD8D83
:10120000EA0DFB1DA081B181FD0101900020E9F7ED
:1012100031976F01CA1ADB0AA60160E070E0C801CD
:101220008E0D9F1D0E94DD12F4E0EF0EF11CEC8D7F
:10123000FD8DEA0DFB1D60817181A601C8018E0D37
:101240009F1D0E944C20EC0CFD1C8FEF481A580A81
:10125000680A780AE2E0AE0EB11CC7CFC701DF9181
:10126000CF911F910F91FF90EF90DF90CF90BF90A3
:10127000AF907F906F905F904F900895EF92FF92A4
:101280000F931F93CF93DF938C017B01DC011296A8
:101290002C911297FB012193CF011396ED91FC91B4
:1012A0001497EF0109900020E9F72197CE1BDF0B7F
:1012B000AE0160E070E00E94DD12D80113966D91DE
:1012C0007C911497AE01C70105960E944C20CE0177
:1012D0000596DF91CF911F910F91FF90EF900895A8
:1012E000CF92DF92EF92FF920F931F93CF93DF93F2
:1012F0007C018B01DC0112968C911297FB0180839B
:1013000013968C91139781831496ED91FC91159708
:10131000EF0109900020E9F72197CE1BDF0BAE010A
:1013200060E070E0C80102960E94DD12D7011496B9
:101330006D917C911597AE01C80106960E944C20D4
:10134000CE010696F701A681B781FD01019000202C
:10135000E9F731976F01CA1ADB0AA60160E070E075
:10136000800F911F0E94DD122A96D70116966D916B
:101370007C911797A601C8018C0F9D1F0E944C20DD
:10138000CC0DDD1DD7011896ED91FC911997DF0169
:101390000D900020E9F711976D01CE1ADF0AA60122
:1013A00060E070E0C8018C0F9D1F0E94DD12249642
:1013B000F70160857185A601C8018C0F9D1F0E94F1
:1013C0004C20C6018C0F9D1FD7011A966C911A975D
:1013D0001B964C911B971C963C911C971D962C912B
:1013E000F801E80FF91F6083418332832383049659
:1013F000DF91CF911F910F91FF90EF90DF90CF90F1
:101400000895DC01ED91FD918081ED91FD91908138
:10141000ED91FD916C9163708E2309F064609F23C0
:1014200009F06860EEE1FAE0E60FF11D659565955B
:101430006D936D917D918D919D91099423C01AC0FA
:1014400012C016C010C01EC009C014C013C006C010
:1014500019C009C00DC007C00DC014C06250704053
:10146000804090400BC0615070408040904006C06A
:101470006E5F01C06F5F7F4F8F4F9F4F9E938E9324
:101480007E936E930895FC01918D228D892F90E0BB
:10149000805C9F4F821B91098F739927089580E08C
:1014A00090E0892B21F00E947D13811125C080E0FE
:1014B00090E0892B41F080E090E0892B21F00E94A0
:1014C000000081111CC080E090E0892B41F080E099
:1014D00090E0892B21F00E940000811113C080E070
:1014E00090E0892BA1F080E090E0892B81F00E94B0
:1014F000000081110AC008950E940000D8CF0E9408
:101500000000E1CF0E940000EACF0C940000089593
:1015100085ED8093BC008091BC0084FDFCCF1092CF
:101520006B05089540914705262F30E0240F311DAB
:1015300021323105DCF420916B052430C9F4FC0123
:1015400080E090E0861758F4309147052191DC0146
:10155000A95DBA4FA30FB11D2C930196F3CF8091D3
:101560004705680F6093470580E0089581E008957E
:1015700082E0089508958FEF9FEF08958FEF9FEF1A
:1015800008958091260590E091958195910908959F
:10159000CF93DF93CB01EA01642F0E94920ACE0120
:1015A000DF91CF910895CF93DF931F92CDB7DEB730
:1015B000698361E0CE0101960E94920A81E090E089
:1015C0000F90DF91CF910895089580E090E0089505
:1015D0008AE494E008958BE694E00895FC0186A1E6
:1015E00097A108958FE794E0089580EA94E0089524
:1015F000FC018689978908958A579B4FFC01808159
:1016000008950F931F93FC01468157816085718572
:10161000028513852485358582819381A481B581D6
:10162000EEE2FCE080879187A287B3870487158765
:1016300026873787408B518B628B738BEEE0FCE003
:1016400080879187A287B387048715872687378786
:10165000408B518B628B738BEEEEFBE08087918722
:10166000A287B3870487158726873787408B518BDE
:10167000628B738BEEECFBE080879187A287B38748
:101680000487158726873787408B518B628B738B36
:101690001F910F910895CF92DF92EF92FF920F93D7
:1016A0001F93CF93DF936C018B017A01EC01CE5D28
:1016B000DA4F888187FF04C0FB011182108224C0A9
:1016C0002CE02C9DC0012D9D900D11242881AC0192
:1016D000420F511D27FD5A952091C70630E0421751
:1016E000530794F42881AC01420F511D27FD5A95F0
:1016F0009A01FA01EE0FFF1F2E0F3F1FF901E95C5F
:10170000F94F208126FD19C088818F5F88832CE0E6
:101710002C9DC0012D9D900D11242881AC01420FFC
:10172000511D27FD5A952091C70630E042175307F7
:10173000BCF428812C3044F113C02881820F911D04
:1017400027FD9A95FC01EE0FFF1F8E0F9F1FFC01D6
:10175000E95CF94F808160E08F730E94DF17D4CF7E
:10176000F80180819181049680349C4918F480E4CA
:101770009CE904C0F801808191810496F70191836E
:1017800080838FEF888345C0F80140815181288193
:10179000BC01620F711D27FD7A959B01FB01EE0FC5
:1017A000FF1F2E0F3F1FF901E95CF94F21813281A4
:1017B000240F351FF701318320832881AC01420FAC
:1017C000511D27FD5A959A01FA01EE0FFF1F2E0FAA
:1017D0003F1FF901E95CF94F208126FF1AC02881DB
:1017E000820F911D27FD9A95FC01EE0FFF1F8E0FB2
:1017F0009F1FFC01E95CF94F808161E08F73DF91ED
:10180000CF911F910F91FF90EF90DF90CF900C94AC
:10181000DF17DF91CF911F910F91FF90EF90DF9035
:10182000CF9008950F931F93CF93DF938C01EC011A
:101830002696CE010E945D04D8019496ED91FC910C
:101840009597CE01DF91CF911F910F9119940F932E
:101850001F93CF93DF938C01EC012696CE010E945B
:101860002C02D8015496ED91FC915597CE01DF9151
:10187000CF911F910F9119940C94FB142F923F92CA
:101880004F925F926F927F928F929F92AF92BF9290
:10189000CF92DF92EF92FF920F931F93CF93DF933C
:1018A000CDB7DEB7A6970FB6F894DEBF0FBECDBF9B
:1018B0008C010E94FB144B015C01980125573B4FA2
:1018C0003E8B2D8BF90180819181A281B381A5018D
:1018D0009401281B390B4A0B5B0BDA01C901893FC4
:1018E0009A42A105B10510F035971082180144E81D
:1018F000241A4BEF340AD1018D919C91892B79F0F8
:10190000F801E157FB4F80819181A281B381881555
:101910009905AA05BB0518F4F101118210829801FE
:101920002C573B4F3A8B298BA80140585B4F5C8B5F
:101930004B8BC8014896988F8F8BD801AA57BB4F05
:10194000BC8FAB8FF801EC56FB4FFE8FED8F215F04
:101950003F4F38A32F8F42505109588B4F878659DC
:101960009B4F9A8F898F1996BAA3A9A3A5019401B9
:101970002C5E3F4F4F4F5F4F2BA33CA34DA35EA365
:10198000F80184899589A689B789892B8A2B8B2BA5
:1019900081F4D80112968D919C911397DC01ED9101
:1019A000FC910284F385E02D19959C0197FF14C0EA
:1019B0008DC20E94FB14DC01CB0188199909AA0988
:1019C000BB09F801C488D588E688F788C816D90607
:1019D000EA06FB06F0F6A1C2A989BA898D919C910D
:1019E0001197820F931F8D939C93F1014081518138
:1019F00047305105D9F4A98DBA8D8D919C911197DD
:101A0000AC014F5F5F4F4D935C93F801E80FF91FF6
:101A1000208FEF85F8898081918101979183808360
:101A2000892B09F0ADCF88E090E032C04115510517
:101A300039F52F3F310589F481E090E0F101918380
:101A400080832BA13CA14DA15EA1A9A1BAA12D9398
:101A50003D934D935C93139793CF0E94FB14DC014D
:101A6000CB0188199909AA09BB0989389341A105B5
:101A7000B10508F485CFF801EA57FB4F10824DC23B
:101A800041305105A9F42E3F310531F482E090E058
:101A9000D1018D939C9374CFF10111821082AB8D93
:101AA000BC8D8C9181116CCFC8010E94A71768CFA3
:101AB0004230510591F4EF85F88931832083A98D57
:101AC000BA8D1D921C9283E090E0F1019183808396
:101AD000A989BA892D933C9353CF4330510569F4BA
:101AE000322F2227EF85F88980819181280F391FB5
:101AF0003183208384E090E0CBCF4430510581F4E2
:101B000060E071E00E94091F8F3F910531F485E08C
:101B100090E0F1019183808333CF1182108230CF26
:101B20004530510571F4EB89FC893183208386E0CF
:101B300090E0D1018D939C93E989FA8931832083C8
:101B40001FCF46305105A9F4322F2227AB89BC891B
:101B50008D919C911197280F391F2D933C9387E00D
:101B600090E0F10191838083AF85B8898D919C913C
:101B700057CF4830510509F003CFF101118210828F
:101B800060E071E00E94091F8F3F910509F0F8CED7
:101B9000AB89BC898D919C91009709F0C6C0C801A2
:101BA0000E94A71786E392E09A8389831C821B8296
:101BB00086EE94E09E838D8398878F839A878987AA
:101BC0001B861C861D861E866801B8EECB1ABBEFED
:101BD000DB0A7801E6EBEE1AEBEFFE0A412C22E07D
:101BE000522E612C712CD601ED91FC913097A9F108
:101BF000848195819C838B83808191819E838D8359
:101C000082819381DC01ED91FC910480F581E02DCE
:101C1000199598878F83D601ED91FC9182819381EC
:101C2000DC01ED91FC910680F781E02D19959A87F2
:101C300089874B865C866D867E86D601ED91FC9108
:101C400060857185D801ED91FC910190F081E02DC6
:101C5000AE014F5F5F4FC8011995B2E0CB0ED11CAA
:101C6000EC14FD0409F0BFCF412C92E0592E612CF9
:101C7000712CF701A081B1811097E1F112968D913D
:101C80009C9113979C838B8314968D919C911597AF
:101C90009E838D83ED91FC9111970480F581E02D59
:101CA000CD01199598878F83D7018D919C91DC0187
:101CB000ED91FC910680F781E02D19959A8789872F
:101CC0004B865C866D867E86D801ED91FC91C08046
:101CD000D180F70180819181DC01ED91FC9102803E
:101CE000F381E02D1995AE014F5F5F4FBC01C80134
:101CF000F6011995F2E0EF0EF11CE214F30409F07D
:101D0000B8CFF801EA57FB4F81E08083319680829B
:101D10009182A282B382AD89BE898D929D92AD924D
:101D2000BC9213978FEF9FEFFDC08A30910509F0A9
:101D3000A2C08EE492E09A8389831B821C821D825A
:101D40001E821F82188619861A860E94FB14F801CB
:101D5000C084D184E284F3849B01AC012C193D0939
:101D60004E095F0969017A016F89788DCE0101966C
:101D70000E94FC02C701B60128EE33E040E050E0CB
:101D80000E94BC1ECB80DC80ED80FE80C20ED31E84
:101D9000E41EF51ECB82DC82ED82FE829B01AC014B
:101DA00060E472E48FE090E00E94ED1ECF80D88462
:101DB000E984FA84DC01CB018C0D9D1DAE1DBF1D95
:101DC0008F839887A987BA870E94FB14CF80D88415
:101DD000E984FA8436E3D31A35E6E30A34ECF30AED
:101DE00028EE33E040E050E00E94BC1E29013A0199
:101DF0009B01AC0160E472E48FE090E00E94ED1E74
:101E0000A7019601261B370B480B590BCA01B901D4
:101E1000CB80DC80ED80FE8031E0C31AD108E10880
:101E2000F108A70196012419350946095709290126
:101E30003A0120E03AEC4AE95BE30E94BC1E7301E0
:101E40006201C20ED31EE41EF51ED8011C96CD926F
:101E5000DD92ED92FC921F97F801608B718B828B63
:101E6000938B0E94FB14AD89BE896D937D938D93F6
:101E70009C93139785CD8630910559F46F89788DA1
:101E80008D8D9E8D0E94AA0681E0EF8DF8A1808342
:101E900077CD8B30910521F4AB8DBC8D1C9270CD2C
:101EA000FC01EF53FE4FEE0FFF1FE00FF11F80818B
:101EB0009181009709F464CDDC01ED91FC910190D2
:101EC000F081E02D6F89788D19955ACDF801EA5788
:101ED000FB4F8081882321F17801B9E7EB1ABBEF32
:101EE000FB0AF70180819181A281B381A501940150
:101EF000281B390B4A0B5B0BDA01C901853C994061
:101F0000A105B10568F0C8010E94A717D7018D92FD
:101F10009D92AD92BC92139703C08EEF9FEF02C0CB
:101F200080E090E0A6960FB6F894DEBF0FBECDBF5E
:101F3000DF91CF911F910F91FF90EF90DF90CF90A5
:101F4000BF90AF909F908F907F906F905F904F90D9
:101F50003F902F90089580912005909121050C9439
:101F6000010A80911E0590911F050C94010A809131
:101F70001C0590911D050C94010A80911A05909101
:101F80001B050C94010A80911805909119050C9479
:101F9000010A80911605909117050C94010AFC0125
:101FA000848DDF01A80FB11DA35ABF4F2C91848DE2
:101FB00090E001968F739927848FA689B7892C9317
:101FC000A089B1898C91837080648C93938D848D6A
:101FD000981306C00288F389E02D80818F7D80836D
:101FE00008951F920F920FB60F9211240BB60F9205
:101FF0002F933F934F935F936F937F938F939F9311
:10200000AF93BF93EF93FF938091B900887F8036A1
:1020100009F49CC068F5883209F45BC090F4803103
:1020200009F454C038F4882309F4F2C0883009F464
:102030004DC0F2C0883109F44CC0803209F45DC053
:10204000EBC0803409F468C048F4803309F455C00B
:10205000883309F0E1C080936A05D4C0803509F463
:102060004FC0883509F45DC0883409F0D5C0D2C0AE
:10207000883909F4C3C0A8F4883709F467C038F474
:10208000883609F463C0803709F460C0C5C0883859
:1020900009F4B4C0803909F45FC0803809F0BCC0CD
:1020A0005BC0803B09F484C038F4803A09F466C010
:1020B000883A09F47DC0B0C0803C09F4A3C0883CD4
:1020C00009F4A0C0883B09F486C0A6C080919005A1
:1020D00010C090918F0580918E05981770F5E09152
:1020E0008F0581E08E0F80938F05F0E0E259FA4F63
:1020F00080818093BB0085EC82C080936A058AC092
:10210000E0918F0581E08E0F80938F058091BB0059
:10211000F0E0E259FA4F808390918F0580918E050F
:102120006AC0E0918F0581E08E0F80938F058091CA
:10213000BB00F0E0E259FA4F808380916D05811178
:1021400069C081E080936C0584EA5DC083E0809380
:102150006B0510926905CFCF80916905803208F038
:102160004DC0E091690581E08E0F809369058091F3
:10217000BB00F0E0E75BFA4F8083BDCF85EC809336
:10218000BC0010926B0580916905803230F4E091BB
:102190006905F0E0E75BFA4F10826091690570E035
:1021A00089E495E0E0E0F0E019951092690534C00B
:1021B00084E080936B051092480510924705E0E09B
:1021C000F0E0199580914705811105C081E0809369
:1021D000470510922705E091480581E08E0F809316
:1021E0004805F0E0E95DFA4F80818093BB00909153
:1021F000480580914705981708F47DCF85E88093BE
:10220000BC000AC085EC8093BC0010926B0504C032
:1022100010926A050E94880AFF91EF91BF91AF91D9
:102220009F918F917F916F915F914F913F912F91EE
:102230000F900BBE0F900FBE0F901F901895FC01D2
:102240009081903388F5818128E830E0281B31099E
:1022500087FD3395220F331F220F331F6217730739
:1022600084F0828148E552E0481B510987FD53956F
:10227000440F551F440F551F9B01461757070CF479
:102280009A0122503109220F331F4FB7F894892F3A
:1022900090E0FC01EE0FFF1F8E0F9F1FFC01E95C19
:1022A000F94F328321834FBF08951F920F920FB6CB
:1022B0000F9211240BB60F922F933F934F935F937E
:1022C0006F937F938F939F93AF93BF93EF93FF93FE
:1022D00048E251E064E271E080E090E00E944B0B44
:1022E000FF91EF91BF91AF919F918F917F916F91EE
:1022F0005F914F913F912F910F900BBE0F900FBEAA
:102300000F901F9018951F920F920FB60F921124E5
:102310000BB60F922F933F934F935F936F937F93DF
:102320008F939F93AF93BF93EF93FF9348EA50E04F
:1023300064EA70E083E090E00E944B0BFF91EF9124
:10234000BF91AF919F918F917F916F915F914F91CD
:102350003F912F910F900BBE0F900FBE0F901F90CB
:1023600018951F920F920FB60F9211240BB60F9271
:102370002F933F934F935F936F937F938F939F938D
:10238000AF93BF93EF93FF9348E950E064E970E0A7
:1023900082E090E00E944B0BFF91EF91BF91AF91D3
:1023A0009F918F917F916F915F914F913F912F916D
:1023B0000F900BBE0F900FBE0F901F9018951F929D
:1023C0000F920FB60F9211240BB60F922F933F93DB
:1023D0004F935F936F937F938F939F93AF93BF932D
:1023E000EF93FF9348E850E064E870E081E090E00C
:1023F0000E944B0BFF91EF91BF91AF919F918F91F5
:102400007F916F915F914F913F912F910F900BBEF4
:102410000F900FBE0F901F901895CF93DF9300D0B1
:102420001F921F92CDB7DEB722E432E03A832983B0
:102430006B835D834C83DC01ED91FC910190F08115
:10244000E02DAE014F5F5F4F67E070E019950F9090
:102450000F900F900F900F90DF91CF910895CF9232
:10246000DF92EF92FF920F931F93CF93DF93643627
:1024700071053CF0FC01EA57FB4F2081222309F44F
:1024800061C0DA018B01EC01BC01615E7D4FED9111
:10249000FC910190F081E02DCA0119957E0128EE92
:1024A000E21A2DEFF20A2FEFD7012C93FE01E75E1F
:1024B000FD4F2EEF208331968083319690833196A5
:1024C000292F280F209520833196008316961C9380
:1024D00045E050E020E030E0DC011696A417B50797
:1024E00034F06191260F311D4F5F5F4FF7CF8C01A4
:1024F000085F1F4F8C0F9D1FFC01E15EFD4F209573
:1025000020830130B2E01B07A4F46701C6018E19D5
:102510009F0980179107CCF48A819B81F601619114
:102520006F01DC01ED91FC910190F081E02D199596
:10253000EDCF4EEA54E063E0CE010E940D128FEF22
:102540009FEF04C080E090E001C0C801DF91CF910F
:102550001F910F91FF90EF90DF90CF900895CF9251
:10256000DF92EF92FF92FC0110821182128213829D
:10257000DB0120E030E04D9150E0022E02C0440F1C
:10258000551F0A94E2F7052E000C660B770BC080EE
:10259000D180E280F3804C295D296E297F29408318
:1025A000518362837383285F3F4F2032310519F7CF
:1025B000FF90EF90DF90CF900895CF92DF92EF924F
:1025C000FF9220E030E06A017B01022E04C0F69405
:1025D000E794D794C7940A94D2F7FC01C192CF0133
:1025E000285F3F4F2032310571F7FF90EF90DF9069
:1025F000CF9008953FB7F8948091960590919705F4
:10260000A0919805B091990526B5A89B05C02F3FCC
:1026100019F00196A11DB11D3FBFBA2FA92F982F08
:102620008827820F911DA11DB11DBC01CD0142E083
:10263000660F771F881F991F4A95D1F7089508954F
:10264000CF92DF92EF92FF920F931F93CF93DF937E
:102650006C017A018B01C0E0D0E0CE15DF0581F07E
:10266000D8016D918D01D601ED91FC910190F08121
:10267000E02DC6011995892B11F02196EECF7E0130
:10268000C701DF91CF911F910F91FF90EF90DF90E5
:10269000CF900895FC01538D448D252F30E0842F79
:1026A00090E0821B930B541710F0CF96089501977A
:1026B0000895FC01918D828D981761F0828DDF0164
:1026C000A80FB11D5D968C91928D9F5F9F73928F25
:1026D00090E008958FEF9FEF0895FC01918D828D1A
:1026E000981731F0828DE80FF11D858D90E00895E7
:1026F0008FEF9FEF08950E9447208AE995E00E949E
:10270000430A21E0892B09F420E0822F0895EF92FB
:10271000FF920F931F93CF93DF93EC0181E0888F9B
:102720009B8D8C8D981305C0E889F989808185FD82
:1027300026C0F62E0B8D10E00F5F1F4F0F73112771
:10274000E02E8C8DE8120CC00FB607FCFACFE8899A
:10275000F989808185FFF5CFCE010E94CF0FF1CF9F
:102760008B8DFE01E80FF11DE35AFF4FF0829FB7FA
:10277000F8940B8FEA89FB89808180620AC09FB739
:10278000F894EE89FF896083E889F98980818370F4
:10279000806480839FBF81E090E0DF91CF911F91A3
:1027A0000F91FF90EF900895CF93DF93EC01888D08
:1027B0008823C9F0EA89FB89808185FD05C0A88945
:1027C000B9898C9186FD0FC00FB607FCF5CF8081CB
:1027D00085FFF2CFA889B9898C9185FFEDCFCE0115
:1027E0000E94CF0FE7CFDF91CF910895CF93DF9372
:1027F00090E0FC01E25CFC4F2491FC01E256FC4FAE
:102800008491882361F190E0880F991FFC01EC53BB
:10281000FD4FC591D491FC01E252FD4FA591B491B9
:10282000611109C09FB7F89488812095822388831D
:10283000EC912E230BC0623061F49FB7F89488812D
:10284000322F309583238883EC912E2B2C939FBFBE
:1028500006C08FB7F894E8812E2B28838FBFDF91B5
:10286000CF9108951F93CF93DF93182FEB0161E071
:102870000E94F613209711F460E004C0CF3FD10509
:1028800039F461E0812FDF91CF911F910C94DF1714
:10289000E12FF0E0E850FD4FE4918E2F90E0FC0135
:1028A0003197E231F10508F09DC08827EE58FF4FBF
:1028B0008F4F0C941D1F84B5806884BDC7BD97C021
:1028C00084B5806284BDC8BD92C08091800080685C
:1028D00080938000D0938900C093880088C0809145
:1028E0008000806280938000D0938B00C0938A0028
:1028F0007EC080918000886080938000D0938D009E
:10290000C0938C0074C08091B00080688093B00048
:10291000C093B3006CC08091B00080628093B0001F
:10292000C093B40064C08091900080688093900050
:10293000D0939900C09398005AC080919000806213
:1029400080939000D0939B00C0939A0050C08091D8
:102950009000886080939000D0939D00C0939C006D
:1029600046C08091A00080688093A0008091A00064
:102970008F7B8093A000D093A900C093A80037C09C
:102980008091A00080628093A000D093AB00C093A0
:10299000AA002DC08091A00088608093A000D093F1
:1029A000AD00C093AC0023C080912001806880936B
:1029B0002001D0932901C093280119C080912001E2
:1029C000806280932001D0932B01C0932A010FC015
:1029D00080912001886080932001D0932D01C093C5
:1029E0002C0105C0C038D1050CF04BCF45CFDF918D
:1029F000CF911F9108952FB7F8946091920570912F
:102A0000930580919405909195052FBF08951F928D
:102A10000F920FB60F9211242F933F938F939F9392
:102A2000AF93BF938091920590919305A0919405E7
:102A3000B09195053091910523E0230F2D3720F4B7
:102A40000196A11DB11D05C026E8230F0296A11D08
:102A5000B11D209391058093920590939305A093C7
:102A60009405B09395058091960590919705A09156
:102A70009805B09199050196A11DB11D8093960509
:102A800090939705A0939805B0939905BF91AF9146
:102A90009F918F913F912F910F900FBE0F901F909C
:102AA00018951F920F920FB60F9211240BB60F922A
:102AB0002F933F934F935F936F937F938F939F9346
:102AC000AF93BF93EF93FF93E0910E02F0910F024B
:102AD0001995FF91EF91BF91AF919F918F917F9148
:102AE0006F915F914F913F912F910F900BBE0F907F
:102AF0000FBE0F901F9018951F920F920FB60F9256
:102B000011240BB60F922F933F934F935F936F93C4
:102B10007F938F939F93AF93BF93EF93FF93E09136
:102B20000C02F0910D021995FF91EF91BF91AF91B9
:102B30009F918F917F916F915F914F913F912F91D5
:102B40000F900BBE0F900FBE0F901F9018951F9205
:102B50000F920FB60F9211240BB60F922F933F9343
:102B60004F935F936F937F938F939F93AF93BF9395
:102B7000EF93FF93E0910202F09103021995FF9108
:102B8000EF91BF91AF919F918F917F916F915F91E5
:102B90004F913F912F910F900BBE0F900FBE0F9052
:102BA0001F9018951F920F920FB60F9211240BB61B
:102BB0000F922F933F934F935F936F937F938F93D6
:102BC0009F93AF93BF93EF93FF93E0910002F09137
:102BD00001021995FF91EF91BF91AF919F918F9154
:102BE0007F916F915F914F913F912F910F900BBE0D
:102BF0000F900FBE0F901F9018951F920F920FB657
:102C00000F9211240BB60F922F933F934F935F9324
:102C10006F937F938F939F93AF93BF93EF93FF93A4
:102C2000E0910A02F0910B021995FF91EF91BF918B
:102C3000AF919F918F917F916F915F914F913F9154
:102C40002F910F900BBE0F900FBE0F901F901895F5
:102C50001F920F920FB60F9211240BB60F922F9363
:102C60003F934F935F936F937F938F939F93AF9314
:102C7000BF93EF93FF93E0910802F0910902199539
:102C8000FF91EF91BF91AF919F918F917F916F9144
:102C90005F914F913F912F910F900BBE0F900FBE00
:102CA0000F901F9018951F920F920FB60F9211243C
:102CB0000BB60F922F933F934F935F936F937F9336
:102CC0008F939F93AF93BF93EF93FF93E09106028F
:102CD000F09107021995FF91EF91BF91AF919F91EC
:102CE0008F917F916F915F914F913F912F910F90B5
:102CF0000BBE0F900FBE0F901F9018951F920F9252
:102D00000FB60F9211240BB60F922F933F934F9350
:102D10005F936F937F938F939F93AF93BF93EF9343
:102D2000FF93E0910402F09105021995FF91EF9154
:102D3000BF91AF919F918F917F916F915F914F91D3
:102D40003F912F910F900BBE0F900FBE0F901F90D1
:102D500018951F920F920FB60F9211240BB60F9277
:102D60002F933F934F935F936F937F938F939F9393
:102D7000AF93BF93EF93FF938AE995E00E94CF0F43
:102D8000FF91EF91BF91AF919F918F917F916F9143
:102D90005F914F913F912F910F900BBE0F900FBEFF
:102DA0000F901F9018951F920F920FB60F9211243B
:102DB0000BB60F922F938F939F93EF93FF93E09116
:102DC000AA05F091AB058081E091B005F091B105C5
:102DD00082FD12C090818091B3058F5F8F73209127
:102DE000B405821751F0E091B305F0E0E656FA4FD2
:102DF000958F8093B30501C08081FF91EF919F91E2
:102E00008F912F910F900BBE0F900FBE0F901F90C0
:102E10001895EF92FF920F931F93CF93DF93EC01DE
:102E2000062F142F62E0802F0E94F61362E0812F9C
:102E30000E94F6138EE096E099838883802F90E0BD
:102E4000FC01E256FC4FE491F0E0EE0FFF1FEC575F
:102E5000FC4FA591B491BB87AA87FC01E25CFC4FB3
:102E600024912E87812F90E0FC01E256FC4FE491E3
:102E7000F0E0EE0FFF1FEC57FC4F459154915D873A
:102E80004C87FC01E25CFC4F94919F87198A1A8A57
:102E90001B8A1C8AEBE3FFE13197F1F7EC91E22307
:102EA00031E009F430E0DA01EC91E92309F0326015
:102EB000388B7E01BAE0EB0EF11CB701802F0E9427
:102EC0005D188D8BB701812F0E945D189D89890F38
:102ED0008D8BDF91CF911F910F91FF90EF9008950F
:102EE000CF93DF93EC01CB016091C706603398F478
:102EF00071E0760F7093C706688370E0FB01EE0FF8
:102F0000FF1F6E0F7F1FFB01E95CF94F68EB7BE051
:102F10007283618302C06FEF68831C821B828D8382
:102F20009E8358874F833A87298761E00E94F61372
:102F300061E08F810E94F61361E089850E94F6139B
:102F400060E070E08D81DF91CF910C9432140F938B
:102F50001F93CF93DF93CDB7DEB72A970FB6F894C0
:102F6000DEBF0FBECDBF8C018EE492E09A838983D1
:102F70001B821C821D821E821F82188619861A8659
:102F8000D801ED91FC910190F081E02DAE014F5FF1
:102F90005F4F6AE070E0C80119950E94FB14F801C8
:102FA00060877187828793872A960FB6F894DEBF71
:102FB0000FBECDBFDF91CF911F910F910895362F96
:102FC00090E0FC01E850FD4F4491FC01E25CFC4FB5
:102FD0002491FC01E256FC4F9491992309F46CC0B2
:102FE000442309F455C050E0FA013197E231F1056C
:102FF00008F04EC08827EC57FF4F8F4F0C941D1FD1
:10300000809180008F7707C0809180008F7D03C002
:1030100080918000877F809380003AC084B58F774D
:1030200002C084B58F7D84BD33C08091B0008F779E
:1030300003C08091B0008F7D8093B00029C0809143
:1030400090008F7707C0809190008F7D03C08091A2
:103050009000877F809390001BC08091A0008F77A5
:1030600007C08091A0008F7D03C08091A000877F62
:103070008093A0000DC0809120018F7707C08091C0
:1030800020018F7D03C080912001877F80932001E4
:10309000E92FF0E0EE0FFF1FE252FD4FA591B49132
:1030A0009FB7F894311104C08C912095282302C059
:1030B000EC912E2B2C939FBF0895823109F466C0AA
:1030C000B8F4823069F1833009F073C07093190548
:1030D0006093180583EC9FE09093030280930202B3
:1030E00080916A00837F846080936A00ED9A5FC05C
:1030F000843141F1C8F1853109F05BC070931B0543
:1031000060931A058DEB9FE0909305028093040273
:10311000809169008C7F816080936900E89A47C044
:10312000709317056093160589EC9FE09093010258
:103130008093000280916A008C7F816080936A0096
:10314000EC9A35C070931D0560931C0587EB9FE0DA
:10315000909307028093060280916900837F8460C8
:1031600080936900E99A23C070931F0560931E0540
:1031700081EB9FE09093090280930802809169009F
:103180008F7C806180936900EA9A11C07093210559
:10319000609320058BEA9FE090930B0280930A02D4
:1031A000809169008F73806480936900EB9A81E05D
:1031B000089580E00895789484B5826084BD84B5D4
:1031C000816084BD85B5826085BD85B5816085BD22
:1031D00080916E00816080936E00109281008091DA
:1031E0008100826080938100809181008160809362
:1031F0008100809180008160809380008091B10087
:1032000084608093B1008091B00081608093B000B1
:103210008091910082608093910080919100816003
:1032200080939100809190008160809390008091C4
:10323000A10082608093A1008091A10081608093B1
:10324000A1008091A00081608093A0008091210165
:10325000826080932101809121018160809321010E
:103260008091200181608093200180917A008460A8
:1032700080937A0080917A00826080937A008091B6
:103280007A00816080937A0080917A0080688093D0
:103290007A001092C1008091590C803308F052C01E
:1032A00061E087E00E94F6138091590CE82FF0E06E
:1032B0009F01220F331FE20FF31FE95CF94F90814A
:1032C000907C9760908310925A0C10925B0C6CE08B
:1032D0000E94FD1E2CE0829FB001112440E050E0CE
:1032E0009B01240F351FF901EE0FFF1F2E0F3F1F0B
:1032F000F901E95CF94F908196FD17C04F5F5F4F70
:103300004C30510569F7813009F09DC11092800061
:1033100082E0809381001092850010928400B19A1F
:1033200080916F00826080936F00E091590CF0E013
:10333000CF01880F991FE80FF91FE95CF94F8081D1
:103340008064808380915A0C28E830E06901C81AB3
:10335000D10887FDD394CC0CDD1CCC0CDD1C0D2CCE
:10336000000CEE08FF0880915B0C28E532E0281B7A
:10337000310987FD3395220F331F220F331FC901F7
:10338000330FAA0BBB0B9C01AD012C193D094E0953
:103390005F09AAE5B0E00E94B11E24EB30E040E0F6
:1033A00050E00E94921ECA01B9016C0D7D1D8E1D58
:1033B0009F1D89E59CE00E941F11C0902007D090BE
:1033C0002107E0902207F0902307C0911E07D091BB
:1033D0001F0760E079E08DE390E0A70196010E946D
:1033E000BC1EDA01C9010197A109B109B695A795DB
:1033F000979587959C01E889F98982E08083C114BB
:1034000081EED806E104F10421F0211590E139079D
:10341000A8F0E889F989108260E874E88EE190E00C
:10342000A70196010E94BC1EDA01C9010197A109FA
:10343000B109B695A795979587959C01EC85FD8573
:103440003083EE85FF852083188EEC89FD8986E028
:103450008083EA89FB89808180618083EA89FB8996
:10346000808188608083EA89FB898081806880838D
:10347000EA89FB8980818F7D80831092990B10925D
:10348000980B10929B0B10929A0B10929F0B10921C
:103490009E0B10929D0B10929C0B80E091EEA0E091
:1034A000B0E08093200790932107A0932207B09368
:1034B0002307A6E6BBE0FD0180E090E02191319179
:1034C000232B81F4FC01EE0FFF1FEA59F44F2CED82
:1034D00036E0318320838C599F4F9093DF06809391
:1034E000DE0604C001968931910541F780E090E045
:1034F0002D913D91232B81F4FC01EE0FFF1FEA5922
:10350000F44F24EF36E0318320838C599F4F909302
:10351000F7068093F60604C001968931910541F7BC
:10352000A4E3BBE0FD0180E090E021913191232BE9
:10353000B1F4FC01EE0FFF1FEC5CF44F28EC36E019
:103540003183208383589F4F9093CD068093CC0680
:103550008CE197E09093CF068093CE0604C001964D
:103560008931910511F780E090E02D913D91232B59
:10357000B1F4FC01EE0FFF1FEC5CF44F22ED36E0DE
:103580003183208383589F4F9093D7068093D6062C
:103590008CE197E09093D9068093D80604C00196F9
:1035A0008931910511F78091A20B811105C08CE141
:1035B00097E00E943E0CF7CF47EE54E061E08CE1CB
:1035C00097E00E940D120E94FA126B017C010E948A
:1035D000FA12DC01CB018C199D09AE09BF09883EA6
:1035E0009340A105B10598F38091510C9091520C34
:1035F00081309105C9F048F0029711F569ED75E049
:103600008EE49CE00E941F111BC060E08091550C6D
:103610000E94DF1761E08091570C0E94DF1763E082
:1036200070E08091530C0AC060E070E08091570C0C
:103630000E94321463E070E08091550C0E943214B5
:103640000E944F0AD1CF823061F410929000809393
:103650009100109295001092940088BB80937100A5
:1036600064CE833069F41092A00082E08093A100C0
:103670001092A5001092A40089BB8093720055CED1
:10368000811153CE1092200182E08093210110928B
:103690002501109224018ABB8093730046CE8F923D
:1036A0009F92AF92BF92CF92DF92EF92FF920F93D1
:1036B0001F9310929D0510929C0588EE93E0A0E068
:1036C000B0E080939E0590939F05A093A005B093D2
:1036D000A1052AE532E030939B0520939A0525EC5D
:1036E00030E03093A7052093A60524EC30E030931A
:1036F000A9052093A80520EC30E03093AB0520937A
:10370000AA0521EC30E03093AD052093AC0522EC06
:1037100030E03093AF052093AE0526EC30E03093D7
:10372000B1052093B0051092B3051092B405109224
:10373000B5051092B60510925F0C10925E0C809346
:10374000600C9093610CA093620CB093630C8CE6B8
:1037500092E090935D0C80935C0C83E58093400D28
:1037600088E68093390D8EE18093310D43E062E06D
:103770008BE19DE00E94091743E162E185E09DE055
:103780000E9409174FE16EE18FEE9CE00E9409173D
:1037900041E260E289ED9CE00E9409178091C70632
:1037A0008033A0F491E0980F9093C7068093590C52
:1037B00090E0FC01EE0FFF1F8E0F9F1FFC01E95CE4
:1037C000F94F88EB9BE09283818303C08FEF809356
:1037D000590C25E030E044E050E06CE270E08EE40B
:1037E0009CE00E94701727E030E046E050E06DE278
:1037F00070E08EEC9CE00E94701726E230E045E21B
:1038000050E064E270E083EC9CE00E94701729E2D3
:1038100030E048E250E067E270E088EB9CE00E9414
:103820007017812C80E8982EA92C83ECB82E8092FA
:103830002E0C90922F0CA092300CB092310CC12C17
:10384000D12C9FE7E92E93E4F92EC092320CD0924E
:10385000330CE092340CF092350C0AE919E929E1B5
:103860003FE30093360C1093370C2093380C3093C1
:10387000390C4AE959E969E97EE340933A0C5093DF
:103880003B0C60933C0C70933D0C80E090E0A0E01A
:10389000BFE380933E0C90933F0CA093400CB093F9
:1038A000410C80920E0C90920F0CA092100CB092D2
:1038B000110CC092120CD092130CE092140CF092E6
:1038C000150C0093160C1093170C2093180C3093C2
:1038D000190C40931A0C50931B0C60931C0C7093A2
:1038E0001D0C80931E0C90931F0CA093200CB09382
:1038F000210C8092EE0B9092EF0BA092F00BB09205
:10390000F10BC092F20BD092F30BE092F40BF09219
:10391000F50B0093F60B1093F70B2093F80B3093F5
:10392000F90B4093FA0B5093FB0B6093FC0B7093D5
:10393000FD0B8093FE0B9093FF0BA093000CB093B4
:10394000010C8092CE0B9092CF0BA092D00BB09234
:10395000D10BC092D20BD092D30BE092D40BF09249
:10396000D50B0093D60B1093D70B2093D80B309325
:10397000D90B4093DA0B5093DB0B6093DC0B709305
:10398000DD0B8093DE0B9093DF0BA093E00BB093E5
:10399000E10B1092A30C1092A20C8AE491E0909398
:1039A000A50C8093A40C1092A60C1092A70C109258
:1039B000A80C1092A90C87ED93EAA0E7BEE38093D0
:1039C000AA0C9093AB0CA093AC0CB093AD0C8CE70D
:1039D00099EDA0EABEE38093B20C9093B30CA09350
:1039E000B40CB093B50C82E090E09093B70C809348
:1039F000B60C82ED92E090931D0780931C078AE934
:103A000095E090931F0780931E0780E091EEA0E061
:103A1000B0E08093200790932107A0932207B093F2
:103A200023071092A20B8AEB92E09093B10B809344
:103A3000B00B1092B20B1092B30B1092B40B109209
:103A4000B50B1092BB0B1092BA0B1092BC0B1092DC
:103A5000BD0B1092BE0B1092BF0B1092C50B1092B3
:103A6000C40B1092C60B1092C70B1092C80B109289
:103A7000C90B1092CD0B1092CC0B84E39BE0E6E6D1
:103A8000FBE0DC011D921D922BE0A636B207D1F7B8
:103A9000119211922BE0E839F207D1F7A4E3B7E0D5
:103AA000E4E3F9E01D9229E0A433B207D9F71192BB
:103AB0008E179F07E1F7109230071092310710928E
:103AC00032071092330788EE92E09093F5068093C8
:103AD000F4068EEA92E09093FB068093FA0682EA5F
:103AE00092E09093FD068093FC061092FE061092E1
:103AF000FF06109200071092010710920207109221
:103B000003071092040710920507109206071092FF
:103B10000707109208071092090790930B078093EC
:103B20000A0710920C0710920D0710920E071092C0
:103B30000F0710921007109211071092120710929F
:103B4000130710921407109215071092160710927F
:103B500017072CE33CE0309319072093180721E066
:103B600030E030931B0720931A074AEF54E050933C
:103B7000F9064093F8064CED52E05093DD06409371
:103B8000DC0646E952E05093E3064093E2061092C9
:103B9000E4061092E5061092E6061092E7061092EF
:103BA000E8061092E9061092EA061092EB061092CF
:103BB000EC061092ED061092EE061092EF0641E030
:103BC0005BE05093F1064093F0063093F3062093A8
:103BD000F20622E035E03093E1062093E0062AE881
:103BE00032E03093770C2093760C9093790C80938D
:103BF000780C10927A0C10927B0C10927C0C109224
:103C00007D0C10927E0C10927F0C1092800C109202
:103C1000810C1092820C1092830C1092840C1092E2
:103C2000850C9093870C8093860C1092880C1092D0
:103C3000890C10928A0C10928B0C10928C0C1092A2
:103C40008D0C10928E0C10928F0C1092900C109282
:103C5000910C1092920C1092930C9093950C80936F
:103C6000940C1092960C1092970C1092980C109243
:103C7000990C10929A0C10929B0C10929C0C109222
:103C80009D0C10929E0C10929F0C1092A00C109202
:103C9000A10C86E095E09093D3068093D20686E748
:103CA0009CE09093D5068093D4061092DB06109288
:103CB000DA068EE792E09093690C8093680C10927C
:103CC0006A0C10926B0C10926C0C10926D0C10928E
:103CD0006E0C10926F0C1092700C1092710C10926E
:103CE000720C1092730C1092740C1092750C8EE082
:103CF00095E09093C9068093C80688E69CE090936F
:103D0000CB068093CA061092D1061092D0061F915E
:103D10000F91FF90EF90DF90CF90BF90AF909F906A
:103D20008F900895052E97FB1EF400940E94A91E03
:103D300057FD07D00E94BC1E07FC03D04EF40C9424
:103D4000A91E50954095309521953F4F4F4F5F4F9D
:103D5000089590958095709561957F4F8F4F9F4FF7
:103D600008950E94DE1EA59F900DB49F900DA49F04
:103D7000800D911D11240895A1E21A2EAA1BBB1BD0
:103D8000FD010DC0AA1FBB1FEE1FFF1FA217B30727
:103D9000E407F50720F0A21BB30BE40BF50B661F3D
:103DA000771F881F991F1A9469F760957095809501
:103DB00090959B01AC01BD01CF010895A29FB00178
:103DC000B39FC001A39F700D811D1124911DB29F4F
:103DD000700D811D1124911D0895DB018F939F9318
:103DE0000E94B11EBF91AF91A29F800D911DA39F14
:103DF000900DB29F900D11240895991B79E004C095
:103E0000991F961708F0961B881F7A95C9F7809519
:103E1000089597FB072E16F4009407D077FD09D07C
:103E20000E94251F07FC05D03EF4909581959F4F79
:103E30000895709561957F4F0895EE0FFF1F881FBD
:103E40008BBF0790F691E02D1994AA1BBB1B51E183
:103E500007C0AA1FBB1FA617B70710F0A61BB70BFA
:103E6000881F991F5A95A9F780959095BC01CD019F
:103E700008950E943E1F08F481E00895990F0008FC
:103E8000550FAA0BE0E8FEEF16161706E807F9072C
:103E9000C0F012161306E407F50798F0621B730BC7
:103EA000840B950B39F40A2661F0232B242B252B48
:103EB00021F408950A2609F4A140A6958FEF811DEB
:103EC000811D08956F927F928F929F92AF92BF92C1
:103ED000CF92DF92EF92FF920F931F93CF93DF93D6
:103EE000009789F4CB01DF91CF911F910F91FF9043
:103EF000EF90DF90CF90BF90AF909F908F907F908A
:103F00006F900C945520FC01E60FF71F9C01225086
:103F10003109E217F30708F4A9C0EC01D9010D91AA
:103F20001C91119706171707B0F00530110508F41A
:103F30009BC0C80104978617970708F495C00250E4
:103F40001109061B170B019311936D937C93CF01FD
:103F50000E94ED2089C05B01A01AB10A4C01800EBD
:103F6000911EA091490DB0914A0D612C712CE12C4C
:103F7000F12C109709F446C08D919C911197A815CA
:103F8000B905B1F56C0142E0C40ED11CCA14DB04C2
:103F900078F14C018A189B08640142E0C40ED11CE0
:103FA0001296BC9012971396AC91B5E0CB16D10443
:103FB00040F0B282A38391828082D9016D937C9379
:103FC00009C00E5F1F4F800F911FF90191838083FD
:103FD000EB2DFA2FE114F10431F0D7011396FC9385
:103FE000EE93129741C0F0934A0DE093490D3CC007
:103FF0006816790608F43C017D0112960D90BC917B
:10400000A02DB7CF8091470D9091480D8816990645
:10401000E1F466167706C8F48091100290911102BF
:10402000009741F48DB79EB740911402509115024C
:10403000841B950BE817F907C8F4F093480DE0933B
:10404000470DF901718360830FC0CB010E94552099
:104050007C01009759F0A801BE010E944C20CE01BE
:104060000E94ED20C70104C0CE0102C080E090E0B4
:10407000DF91CF911F910F91FF90EF90DF90CF9044
:10408000BF90AF909F908F907F906F90089581E048
:1040900090E0F8940C947621FB01DC0102C00190C1
:1040A0000D9241505040D8F708950F931F93CF932E
:1040B000DF938230910510F482E090E0E091490DA9
:1040C000F0914A0D20E030E0A0E0B0E0309719F127
:1040D000408151810281138148175907C8F0841724
:1040E000950769F4109731F012960C931297139676
:1040F0001C9327C00093490D10934A0D22C021152F
:10410000310519F04217530718F49A01BD01EF0168
:10411000DF01F801DBCF21153105F9F0281B390B40
:104120002430310580F48A819B816115710521F06D
:10413000FB019383828304C090934A0D8093490DC1
:10414000FE01329644C0FE01E20FF31F819391936A
:1041500022503109398328833AC02091470D30918C
:10416000480D232B41F42091120230911302309319
:10417000480D2093470D2091100230911102211516
:10418000310541F42DB73EB740911402509115020C
:10419000241B350BE091470DF091480DE217F30712
:1041A000A0F42E1B3F0B2817390778F0AC014E5FA7
:1041B0005F4F2417350748F04E0F5F1F5093480D8F
:1041C0004093470D8193919302C0E0E0F0E0CF016E
:1041D000DF91CF911F910F910895CF93DF930097B7
:1041E00009F481C0FC01329713821282A091490D1B
:1041F000B0914A0D109781F420813181820F931F75
:104200002091470D3091480D2817390751F5F0934B
:10421000480DE093470D67C0ED0120E030E0CE1778
:10422000DF0740F44A815B819E0141155105F1F0A1
:10423000EA01F5CFD383C28340815181840F951F5A
:10424000C817D90759F488819981840F951F029660
:10425000918380838A819B81938382832115310599
:1042600029F4F0934A0DE093490D3DC0E901FB8329
:10427000EA8349915991C40FD51FEC17FD0761F4EA
:1042800080819181840F951F0296E901998388832B
:10429000828193819B838A83E0E0F0E012968D9186
:1042A0009C911397009719F0FD01DC01F7CF8D91D8
:1042B0009C9111979D012E5F3F4F820F931F20917C
:1042C000470D3091480D2817390769F4309729F4C4
:1042D00010924A0D1092490D02C013821282B093BF
:1042E000480DA093470DDF91CF910895F894FFCF2B
:1042F0001F131F131F131F131F131F131F131F132E
:1043000000004B0D8000726F7373657269616C5FA2
:104310006D7367732F526571756573745061726147
:104320006D00000000007009BC05F302F0020000FF
:1043300000003E096605ED02EA02000000004203AB
:10434000FC02F902F60200000000871320134A1352
:10435000D413430A59136D1300000000D30AC80A8E
:10436000E50ABA0AC10ABE0ABB0A00000000B00290
:104370008E028B0288020000000025053804290205
:104380002602000000004E022C02F50AF20A00008C
:104390000000F5040E0485028202000000004A05B8
:1043A0005D04EB0AE80A000000006508AA06E702BF
:1043B000E402000000007B137B137B137B130000DF
:1043C00000002F123E0CFC0A00000000270CF80A27
:1043D000F50AF20A00000000120CEE0AEB0AE80AE5
:1043E0003237353131303430356630386531623707
:1043F000633063306631616261336531396336370A
:10440000006C696E6F5F6D7367732F496D75003453
:10441000613834326236356634313330383464636F
:104420003262313066623438346561376631370064
:1044300067656F6D657472795F6D7367732F56650D
:1044400063746F723300306565386164346362375A
:104450003830396265326435613061373633353230
:10446000666561383661006C696E6F5F6D73677386
:104470002F56656C6F6369746965730039663065C2
:1044800039386264613635393831393836646466B2
:1044900035336166613761343065343900313161FB
:1044A00062643733316332353933333236316364E2
:1044B0003631383362643132643632393500726FE6
:1044C0007373657269616C5F6D7367732F4C6F678F
:1044D00000306164353166383866633434383932D7
:1044E000663863313036383430373736343630302A
:1044F0003500726F7373657269616C5F6D7367739A
:104500002F546F706963496E666F0063643731368C
:104510003663373463353532633331316662636312
:104520003266653561376263323839007374645FAF
:104530006D7367732F54696D65003966313935665F
:10454000383831323436666466613237393864312E
:10455000643365656263613834610067656F6D65FA
:104560007472795F6D7367732F5477697374006128
:1045700035353964663138376264663633663432CD
:104580003664356633303462366232386262340003
:104590006C696E6F5F6D7367732F504944004D6592
:1045A00073736167652066726F6D206465766963F9
:1045B000652064726F707065643A206D6573736115
:1045C0006765206C6172676572207468616E206235
:1045D00075666665722E004C494E4F424153452028
:1045E000434F4E4E454354454400636D645F7665CA
:1045F0006C00706964007261775F696D750072614B
:06460000775F76656C0097
:00000001FF
