:100000000C9409020C946C060C9441060C94160690
:100010000C94EB050C94C0050C9495050C946A05A2
:100020000C943F050C943A020C943A020C943A0258
:100030000C943A020C943A020C943A020C943A0250
:100040000C943A020C941A0B0C943A020C943A0257
:100050000C943A020C943A020C943A020C94811DCE
:100060000C943A020C94C1060C9497060C943A0234
:100070000C943A020C943A020C943A020C943A0210
:100080000C94EC0A0C943A020C943A020C943A0246
:100090000C943A020C943A020C943A020C94C8085C
:1000A0000C943A020C943A020C94BE0A0C943A0254
:1000B0000C943A020C943A020C943A020C94900A72
:1000C0000C943A020C943A020C943A020C943A02C0
:1000D0000C943A020C943A020C943A020C943A02B0
:1000E0000C943A02FC1BFF1BEE1BF21BF61B361C8A
:1000F000031C071C0D1C111C151C1B1C1F1C231C86
:10010000361C291C2D1C311CB01CB51CBA1CC41C6F
:10011000CE1C471DD81CE01CE81CF21CFC1C061D54
:10012000151D1F1D471D291D331D3D1D0664EC1B9C
:100130003C04BC163E3BE5B93CC93C37C29E5A3D27
:10014000660498083EEA69AAAA3E000000803F00C3
:100150000C9498020C94EA0B0C9467020C94071C04
:100160000C9442040C94B01C0C94690C0C943E0446
:100170000C94331D0C9469130C945D170C94D60FDA
:100180000C9415050C94C9140C94151D0C948F1720
:100190000C9405040C94DB130C94B2030C94361CE1
:1001A0000C94F21C0C94231C0C94D81C0C941F1C53
:1001B0000C94B4030C94E81C0C94FC1B0C943B04AE
:1001C0000C9403110C9438040C946D100C94C4031B
:1001D0000C94FC1C0C94F40F0C944B100C946111B7
:1001E0000C947C120C9478030C94AD100C94471D65
:1001F0000C941D030C946A0B0C941B110C94151198
:100200000C9444130C941F1D0C9445100C943D0247
:100210000C9484160C94FF1B0C94CF100C94481073
:100220000C941B1C0C9445040C94EE1B0C94291C80
:100230000C9414130C94DC0F0C94D8030C94E01C55
:100240000C94031C0C94B5030C94E80F0C94A710A9
:100250000C942A050C94BA1C0C94B51C0C94E20F57
:100260000C943C020C94F21B0C9485130C940F110B
:100270000C94A1100C94B3030C9462260C94151CDE
:100280000C94311C0C94D0020C94390C0C942D1C41
:100290000C9476020C94EF0B0C94EE0F0C943D1D15
:1002A0000C94CE1C0C944C040C9409110C94291D34
:1002B0000C9448040C940D1C0C94F61B0C94061D15
:1002C0000C9406110C9412110C9435040C945712D2
:1002D0000C94A4100C94111C0C94C41C0C940C11C0
:1002E0000C942D120C948A020C9418110C94AA10E0
:1002F00000002200250028002B002E0031003400D1
:1003000002010000050108010B0100000A0B0209AF
:100310000C0D0E080703040100000000000000009F
:1003200000000000000000000000000000000000CD
:10033000000000000000121110000000000000008A
:1003400000000000000000000000000000000000AD
:1003500001021020200808102040102040800201D7
:1003600002010804020101020408102040808040BC
:1003700020100804020180040201804020100804BB
:100380000201080402010102040810204080010259
:1003900004081020408000002000230026002900CF
:1003A0002C002F00320000010000030106010901AA
:1003B00005050505070508080808020202020A0AE1
:1003C00008080404040401010101010101010303FF
:1003D000030303030303040707070C0C0C0C0C0CAA
:1003E0000C0C0202020206060606060606060B0BA7
:1003F0000B0B0B0B0B0B00002100240027002A0025
:100400002D003000330001010000040107010A0142
:10041000622611241FBECFEFD1E2DEBFCDBF00E0C8
:100420000CBF15E0A0E0B2E0E0E7F3E600E00BBFB0
:1004300002C007900D92A63DB107D9F72EE0A6EDB8
:10044000B5E001C01D92A137B207E1F712E0C9E0A3
:10045000D2E000E006C021970109802FFE010E9432
:10046000BE29C830D10780E00807A9F70E94CB1D3C
:100470000C94B6310C9400000895CF92DF92EF9265
:10048000FF920F931F93CF93DF936C017A018B013F
:10049000C0E0D0E0CE15DF0581F0D8016D918D016F
:1004A000D601ED91FC910190F081E02DC6011995E6
:1004B000892B11F02196EECF7E01C701DF91CF91FC
:1004C0001F910F91FF90EF90DF90CF900895FC0166
:1004D000538D448D252F30E0842F90E0821B930BA9
:1004E000541710F0CF96089501970895FC01918D4F
:1004F000828D981761F0828DDF01A80FB11D5D9686
:100500008C91928D9F5F9F73928F90E008958FEFF3
:100510009FEF0895FC01918D828D981731F0828DA7
:10052000E80FF11D858D90E008958FEF9FEF0895FE
:10053000FC01918D228D892F90E0805C9F4F821B62
:1005400091098F739927089583EC96E00E94980291
:1005500021E0892B09F420E0822F0895FC01848D8D
:10056000DF01A80FB11DA35ABF4F2C91848D90E0DD
:1005700001968F739927848FA689B7892C93A089B8
:10058000B1898C91837080648C93938D848D981342
:1005900006C00288F389E02D80818F7D80830895D5
:1005A000EF92FF920F931F93CF93DF93EC0181E0C3
:1005B000888F9B8D8C8D981305C0E889F98980817F
:1005C00085FD26C0F62E0B8D10E00F5F1F4F0F73B9
:1005D0001127E02E8C8DE8120CC00FB607FCFACF65
:1005E000E889F989808185FFF5CFCE010E94AE02AE
:1005F000F1CF8B8DFE01E80FF11DE35AFF4FF08222
:100600009FB7F8940B8FEA89FB89808180620AC0CA
:100610009FB7F894EE89FF896083E889F989808122
:100620008370806480839FBF81E090E0DF91CF91F1
:100630001F910F91FF90EF900895CF93DF93EC01FE
:10064000888D8823C9F0EA89FB89808185FD05C0F2
:10065000A889B9898C9186FD0FC00FB607FCF5CF2C
:10066000808185FFF2CFA889B9898C9185FFEDCF74
:10067000CE010E94AE02E7CFDF91CF91089580E0D6
:1006800090E0892B21F00E94A402811125C080E016
:1006900090E0892B41F080E090E0892B21F00E94CE
:1006A000000081111CC080E090E0892B41F080E0C7
:1006B00090E0892B21F00E940000811113C080E09E
:1006C00090E0892BA1F080E090E0892B81F00E94DE
:1006D000000081110AC008950E940000D8CF0E9436
:1006E0000000E1CF0E940000EACF0C9400000895C2
:1006F0008091E60590E02091E705821B910908951D
:1007000085ED8093BC008091BC0084FDFCCF1092ED
:100710009206089540911D06262F30E0240F311DCA
:1007200021323105DCF4209192062430C9F4FC0119
:1007300080E090E0861758F430911D062191DC018D
:10074000A350BA4FA30FB11D2C930196F3CF809104
:100750001D06680F60931D0680E0089581E00895EE
:1007600082E00895089508950895E091E705809145
:10077000E605E81730F4F0E0E05CF94F808190E0A6
:1007800008958FEF9FEF08959091E7058091E6051A
:10079000981750F4E92FF0E0E05CF94F208130E049
:1007A0009F5F9093E70502C02FEF3FEFC9010895C7
:1007B000CF92DF92EF92FF920F931F93CF93DF932D
:1007C0007C01CB018A0120919306222389F0EB0161
:1007D0006B01C40ED51ECC15DD0569F06991D701FA
:1007E000ED91FC910190F081E02DC7011995F3CFB7
:1007F000642F0E948A03C801DF91CF911F910F914E
:10080000FF90EF90DF90CF900895CF93DF931F92EA
:10081000CDB7DEB76983209193062223D1F02091D2
:10082000B606203240F021E030E0FC013383228321
:1008300080E090E015C080919406E82FF0E0EB5640
:10084000F94F998190838F5F809394068093B606C9
:1008500005C061E0CE0101960E948A0381E090E02C
:100860000F90DF91CF910895089580E090E0089572
:1008700082EC93E0089583EE93E00895FC0186A155
:1008800097A1089587EF93E0089588E194E0089593
:10089000FC018689978908950E949E2DCF92DF9250
:1008A000EF92FF920F931F93CF93DF936C018B0115
:1008B0007A01EC01C750DA4F888187FF04C0FB0141
:1008C0001182108224C02CE02C9DC0012D9D900D22
:1008D00011242881AC01420F511D27FD5A9520910A
:1008E000F00730E04217530794F42881AC01420F1F
:1008F000511D27FD5A959A01FA01EE0FFF1F2E0F89
:100900003F1FF901E05AF84F208126FD19C0888168
:100910008F5F88832CE02C9DC0012D9D900D1124AC
:100920002881AC01420F511D27FD5A952091F007F7
:1009300030E042175307BCF428812C3044F113C037
:100940002881820F911D27FD9A95FC01EE0FFF1F54
:100950008E0F9F1FFC01E05AF84F808160E08F737B
:100960000E94CD1BD4CFF801808191810496803400
:100970009C4918F480E49CE904C0F80180819181CD
:100980000496F701918380838FEF888345C0F80137
:10099000408151812881BC01620F711D27FD7A952C
:1009A0009B01FB01EE0FFF1F2E0F3F1FF901E05AC5
:1009B000F84F21813281240F351FF70131832083C5
:1009C0002881AC01420F511D27FD5A959A01FA0169
:1009D000EE0FFF1F2E0F3F1FF901E05AF84F208145
:1009E00026FF1AC02881820F911D27FD9A95FC01D0
:1009F000EE0FFF1F8E0F9F1FFC01E05AF84F808102
:100A000061E08F73DF91CF911F910F91FF90EF9075
:100A1000DF90CF900C94CD1BDF91CF911F910F9160
:100A2000FF90EF90DF90CF9008950F931F93CF9397
:100A3000DF938C01EC012696CE010E947C12D80136
:100A40009496ED91FC919597CE01DF91CF911F91F6
:100A50000F9119940F931F93CF93DF938C01EC01A7
:100A60002696CE010E944B10D8015496ED91FC9130
:100A70005597CE01DF91CF911F910F9119941F923D
:100A80000F920FB60F9211240BB60F922F933F9334
:100A90004F935F936F937F938F939F93AF93BF9386
:100AA000EF93FF93E0910E02F0910F021995FF91E1
:100AB000EF91BF91AF919F918F917F916F915F91D6
:100AC0004F913F912F910F900BBE0F900FBE0F9043
:100AD0001F9018951F920F920FB60F9211240BB60C
:100AE0000F922F933F934F935F936F937F938F93C7
:100AF0009F93AF93BF93EF93FF93E0910C02F0911C
:100B00000D021995FF91EF91BF91AF919F918F9138
:100B10007F916F915F914F913F912F910F900BBEFD
:100B20000F900FBE0F901F9018951F920F920FB647
:100B30000F9211240BB60F922F933F934F935F9315
:100B40006F937F938F939F93AF93BF93EF93FF9395
:100B5000E0910202F09103021995FF91EF91BF918C
:100B6000AF919F918F917F916F915F914F913F9145
:100B70002F910F900BBE0F900FBE0F901F901895E6
:100B80001F920F920FB60F9211240BB60F922F9354
:100B90003F934F935F936F937F938F939F93AF9305
:100BA000BF93EF93FF93E0910002F091010219953A
:100BB000FF91EF91BF91AF919F918F917F916F9135
:100BC0005F914F913F912F910F900BBE0F900FBEF1
:100BD0000F901F9018951F920F920FB60F9211242D
:100BE0000BB60F922F933F934F935F936F937F9327
:100BF0008F939F93AF93BF93EF93FF93E0910A027C
:100C0000F0910B021995FF91EF91BF91AF919F91D8
:100C10008F917F916F915F914F913F912F910F90A5
:100C20000BBE0F900FBE0F901F9018951F920F9242
:100C30000FB60F9211240BB60F922F933F934F9341
:100C40005F936F937F938F939F93AF93BF93EF9334
:100C5000FF93E0910802F09109021995FF91EF913D
:100C6000BF91AF919F918F917F916F915F914F91C4
:100C70003F912F910F900BBE0F900FBE0F901F90C2
:100C800018951F920F920FB60F9211240BB60F9268
:100C90002F933F934F935F936F937F938F939F9384
:100CA000AF93BF93EF93FF93E0910602F091070299
:100CB0001995FF91EF91BF91AF919F918F917F9186
:100CC0006F915F914F913F912F910F900BBE0F90BD
:100CD0000FBE0F901F9018951F920F920FB60F9294
:100CE00011240BB60F922F933F934F935F936F9303
:100CF0007F938F939F93AF93BF93EF93FF93E09175
:100D00000402F09105021995FF91EF91BF91AF9107
:100D10009F918F917F916F915F914F913F912F9113
:100D20000F900BBE0F900FBE0F901F9018951F9243
:100D30000F920FB60F9211240BB60F922F933F9381
:100D40004F935F936F937F938F939F93AF93BF93D3
:100D5000EF93FF9383EC96E00E94AE02FF91EF9138
:100D6000BF91AF919F918F917F916F915F914F91C3
:100D70003F912F910F900BBE0F900FBE0F901F90C1
:100D800018951F920F920FB60F9211240BB60F9267
:100D90002F938F939F93EF93FF93E091D306F0915E
:100DA000D4068081E091D906F091DA0682FD12C066
:100DB00090818091DC068F5F8F732091DD06821712
:100DC00051F0E091DC06F0E0ED53F94F958F809300
:100DD000DC0601C08081FF91EF919F918F912F914F
:100DE0000F900BBE0F900FBE0F901F9018954F9253
:100DF0005F926F927F928F929F92AF92BF92CF92AB
:100E0000DF92EF92FF920F931F93CF93DF93EC014A
:100E10004A015B01A9019801C501B4010E94DA29C8
:100E20002B013C019B01AC016C897D898E899F89D6
:100E30000E94DB296C8B7D8B8E8B9F8B2C8D3D8D47
:100E40004E8D5F8DC301B2010E94DA296B017C01D6
:100E5000688F798F8A8F9B8F20E030E0A901C501D0
:100E6000B4010E94472A81110DC020E030E0A901A1
:100E7000C301B2010E94472A811104C01C8A1D8A45
:100E80001E8A1F8A2C893D894E895F896C857D85E4
:100E90008E859F850E94AB2B4B015C01288539858F
:100EA0004A855B85C301B2010E94AB2B9B01AC015B
:100EB000C501B4010E94DB294B015C0128893989F5
:100EC0004A895B89C701B6010E94AB2B9B01AC012B
:100ED000C501B4010E94DB295B016C014C8E5D8E63
:100EE0006E8E7F8EE880F9800A811B819701A801B0
:100EF0000E94472A87FD0EC0EC80FD800E811F8175
:100F00009701A801B501C6010E94A62B181614F07E
:100F100075018601B701C801DF91CF911F910F9133
:100F2000FF90EF90DF90CF90BF90AF909F908F9009
:100F30007F906F905F904F900895CF93C42F91E072
:100F4000909393068093B506109294061092B6067D
:100F500087EB96E00E9405046C2F87EB96E00E94D9
:100F6000050481E00E94A51991E0811190E0892F8C
:100F7000CF9108952F923F924F925F926F927F92FE
:100F80008F929F92AF92BF92CF92DF92EF92FF9299
:100F90000F931F93CF93DF93CDB7DEB728970FB68C
:100FA000F894DEBF0FBECDBFD82EC62E4F834901A9
:100FB0000E94751D2B013C012D2C220CE12C188662
:100FC000FF24F3942F81A22EB12C33243A94C8012C
:100FD000A0E0B0E08B839C83AD83BE839F81E91644
:100FE00008F084C0F0929306D092B5061092940651
:100FF0001092B6066C2D87EB96E00E94050481E006
:101000000E94A519F0929306D092B506109294060C
:101010001092B606809192068111FCCFC5018E19FF
:1010200091098132910514F080E290E0813208F05C
:1010300080E2F0929206F092910630929006109221
:101040008F069FEF980F90938E06F0926D06909109
:101050006D06922990936D0690916C06913071F413
:1010600010926C0690916D069093BB009091BC001D
:1010700093FDF8CFA5ECA093BC0003C0B5EEB093F0
:10108000BC00909192069130E1F390918F069817F1
:1010900010F480918F06EEE6F6E0A0E4B6E090E072
:1010A000981721F021912D939F5FFACF1092E705B9
:1010B0009093E6059091E6058091E705981709F46D
:1010C00047C00115110589F10E94751DDC01CB0196
:1010D00084199509A609B7092B813C814D815E8150
:1010E00082179307A407B50700F132C00115110557
:1010F000A9F10E94751DDC01CB0184199509A6098F
:10110000B70920E030E080179107A207B30730F15C
:101110004F81242F30E05885852F550F990B82176A
:101120009307E4F48FEF888719C0D401E885AE0FE8
:10113000B11DE7FDBA95BA83A98387EB96E00E94BB
:10114000C403A981BA818C93B885BF5FB887B2CF39
:101150008F81813208F080E2E80E40CF88852896A2
:101160000FB6F894DEBF0FBECDBFDF91CF911F91B8
:101170000F91FF90EF90DF90CF90BF90AF909F9036
:101180008F907F906F905F904F903F902F90089539
:101190001F920F920FB60F9211240BB60F922F933E
:1011A0003F934F935F936F937F938F939F93AF93EF
:1011B000BF93EF93FF938091B900887F803609F445
:1011C0009CC068F5883209F45BC090F4803109F462
:1011D00054C038F4882309F4F6C0883009F44DC0AF
:1011E000F6C0883109F44CC0803209F45DC0EFC00C
:1011F000803409F468C048F4803309F455C088335A
:1012000009F0E5C080939006D8C0803509F44FC03E
:10121000883509F45DC0883409F0D9C0D6C0883952
:1012200009F4C7C0A8F4883709F467C038F48836D1
:1012300009F463C0803709F460C0C9C0883809F474
:10124000B8C0803909F45FC0803809F0C0C05BC005
:10125000803B09F486C038F4803A09F466C0883AC5
:1012600009F47FC0B4C0803C09F4A7C0883C09F4ED
:10127000A4C0883B09F48AC0AAC080916D0610C042
:1012800090918F0680918E06981770F5E0918F06E9
:1012900081E08E0F80938F06F0E0E259F94F808154
:1012A0008093BB0085EC86C0809390068EC0E09151
:1012B0008F0681E08E0F80938F068091BB00F0E057
:1012C000E259F94F808390918F0680918E066EC00F
:1012D000E0918F0681E08E0F80938F068091BB0096
:1012E000F0E0E259F94F80838091910681116DC041
:1012F00081E080936C0684EA61C083E0809392066B
:1013000010923F06CFCF80913F06803208F051C047
:10131000E0913F0681E08E0F80933F068091BB00F5
:10132000F0E0E15EF94F8083BDCF85EC8093BC0097
:101330001092920680913F06803230F4E0913F0691
:10134000F0E0E15EF94F108260913F0670E0E091BD
:10135000E205F091E3058FE196E0199510923F06C2
:1013600036C084E08093920610921E0610921D06ED
:10137000E091E405F091E505199580911D06811134
:1013800005C081E080931D061092FD05E0911E06C8
:1013900081E08E0F80931E06F0E0E350FA4F8081CB
:1013A0008093BB0090911E0680911D06981708F44B
:1013B00079CF85E88093BC000AC085EC8093BC009F
:1013C0001092920604C0109290060E948003FF9132
:1013D000EF91BF91AF919F918F917F916F915F91AD
:1013E0004F913F912F910F900BBE0F900FBE0F901A
:1013F0001F901895FC019081903388F5818128E831
:1014000030E0281B310987FD3395220F331F220F4F
:10141000331F6217730784F0828148E552E0481B4E
:10142000510987FD5395440F551F440F551F9B01CC
:10143000461757070CF49A0122503109220F331F27
:101440004FB7F894892F90E0FC01EE0FFF1F8E0F2D
:101450009F1FFC01E05AF84F328321834FBF08954C
:101460000F931F93CF93DF938C01EB01FC018381DA
:1014700094818130910561F160F0029709F04BC0D1
:1014800064527A4FC801DF91CF911F910F910C9454
:10149000FA091C161D063CF461E0F80187810E94E0
:1014A000CD1B60E008C0209751F060E0F801878113
:1014B0000E94CD1B61E0F80181850E94CD1BBE0119
:1014C000D7FF03C0719561957109F80185810CC042
:1014D00060E070E0F8011C161D0664F487810E942C
:1014E000871CBE01F8018185DF91CF911F910F917B
:1014F0000C94871C8185209739F00E94871C6627F1
:1015000077276C1B7D0B04C00E94871C60E070E095
:10151000F8018781E9CFDF91CF911F910F91089555
:101520001F920F920FB60F9211240BB60F922F93AA
:101530003F934F935F936F937F938F939F93AF935B
:10154000BF93EF93FF9348E251E064E271E080E0E3
:1015500090E00E944E04FF91EF91BF91AF919F9157
:101560008F917F916F915F914F913F912F910F904C
:101570000BBE0F900FBE0F901F9018951F920F92E9
:101580000FB60F9211240BB60F922F933F934F93E8
:101590005F936F937F938F939F93AF93BF93EF93DB
:1015A000FF9348EA50E064EA70E083E090E00E9434
:1015B0004E04FF91EF91BF91AF919F918F917F91D9
:1015C0006F915F914F913F912F910F900BBE0F90B4
:1015D0000FBE0F901F9018951F920F920FB60F928B
:1015E00011240BB60F922F933F934F935F936F93FA
:1015F0007F938F939F93AF93BF93EF93FF9348E9AC
:1016000050E064E970E082E090E00E944E04FF91B7
:10161000EF91BF91AF919F918F917F916F915F916A
:101620004F913F912F910F900BBE0F900FBE0F90D7
:101630001F9018951F920F920FB60F9211240BB6A0
:101640000F922F933F934F935F936F937F938F935B
:101650009F93AF93BF93EF93FF9348E850E064E804
:1016600070E081E090E00E944E04FF91EF91BF9105
:10167000AF919F918F917F916F915F914F913F912A
:101680002F910F900BBE0F900FBE0F901F901895CB
:10169000CF93DF9300D01F921F92CDB7DEB72AE120
:1016A00032E03A8329836B835D834C83DC01ED91C7
:1016B000FC910190F081E02DAE014F5F5F4F67E03C
:1016C00070E019950F900F900F900F900F90DF9191
:1016D000CF910895CF92DF92EF92FF920F931F93D5
:1016E000CF93DF93643671053CF0FC01EA57FB4F62
:1016F0002081222309F461C0DA018B01EC01BC01D5
:10170000615E7D4FED91FC910190F081E02DCA0169
:1017100019957E0128EEE21A2DEFF20A2FEFD7017C
:101720002C93FE01E75EFD4F2EEF208331968083E0
:10173000319690833196292F280F2095208331965A
:10174000008316961C9345E050E020E030E0DC0179
:101750001696A417B50734F06191260F311D4F5F1F
:101760005F4FF7CF8C01085F1F4F8C0F9D1FFC014F
:10177000E15EFD4F209520830130B2E01B07A4F409
:101780006701C6018E199F0980179107CCF48A81E1
:101790009B81F60161916F01DC01ED91FC9101905B
:1017A000F081E02D1995EDCF46E254E063E0CE01E3
:1017B0000E94480B8FEF9FEF04C080E090E001C0D3
:1017C000C801DF91CF911F910F91FF90EF90DF90B3
:1017D000CF9008958A579B4FFC01808108950F9305
:1017E0001F93FC01468157816085718502851385B1
:1017F0002485358582819381A481B581E7EAFDE066
:1018000080879187A287B3870487158726873787C4
:10181000408B518B628B738BE7E8FDE0808791876B
:10182000A287B3870487158726873787408B518B1C
:10183000628B738BE7E6FDE080879187A287B38791
:101840000487158726873787408B518B628B738B74
:10185000E7E4FDE080879187A287B3870487158737
:1018600026873787408B518B628B738B1F910F912B
:101870000895FC0184819581A681B7818093DE055E
:101880009093DF05A093E005B093E10580859185F5
:10189000A285B3858093DA059093DB05A093DC05E0
:1018A000B093DD05828D938DA48DB58D8093D60583
:1018B0009093D705A093D805B093D9050E94751DC4
:1018C0006093E8057093E9058093EA059093EB0532
:1018D00008952F923F924F925F926F927F928F92D4
:1018E0009F92AF92BF92CF92DF92EF92FF920F93AF
:1018F0001F93CF93DF93CDB7DEB7A6970FB6F894BB
:10190000DEBF0FBECDBF8C010E94751D4B015C0177
:10191000980125573B4F3E8B2D8BF901808191819A
:10192000A281B381A5019401281B390B4A0B5B0BE3
:10193000DA01C901893F9A42A105B10510F0359736
:101940001082180144E8241A4BEF340AD1018D911A
:101950009C91892B79F0F801E157FB4F80819181AF
:10196000A281B38188159905AA05BB0518F4F10178
:101970001182108298012C573B4F3A8B298BA8017A
:1019800040585B4F5C8B4B8BC8014896988F8F8B70
:10199000D801AA57BB4FBC8FAB8FF801EC56FB4F59
:1019A000FE8FED8F215F3F4F38A32F8F425051099B
:1019B000588B4F8786599B4F9A8F898F1996BAA358
:1019C000A9A3A50194012C5E3F4F4F4F5F4F2BA35E
:1019D0003CA34DA35EA3F80184899589A689B789A4
:1019E000892B8A2B8B2B81F4D80112968D919C9197
:1019F0001397DC01ED91FC910284F385E02D19959C
:101A00009C0197FF14C08DC20E94751DDC01CB01A3
:101A100088199909AA09BB09F801C488D588E688FC
:101A2000F788C816D906EA06FB06F0F6A1C2A9890E
:101A3000BA898D919C911197820F931F8D939C93DE
:101A4000F1014081518147305105D9F4A98DBA8DFA
:101A50008D919C911197AC014F5F5F4F4D935C93BB
:101A6000F801E80FF91F208FEF85F88980819181B7
:101A7000019791838083892B09F0ADCF88E090E0B6
:101A800032C04115510539F52F3F310589F481E008
:101A900090E0F101918380832BA13CA14DA15EA137
:101AA000A9A1BAA12D933D934D935C93139793CF26
:101AB0000E94751DDC01CB0188199909AA09BB098F
:101AC00089389341A105B10508F485CFF801EA579B
:101AD000FB4F10824DC241305105A9F42E3F310514
:101AE00031F482E090E0D1018D939C9374CFF101A9
:101AF00011821082AB8DBC8D8C9181116CCFC8018D
:101B00000E94831A68CF4230510591F4EF85F8891D
:101B100031832083A98DBA8D1D921C9283E090E0C1
:101B2000F10191838083A989BA892D933C9353CF86
:101B30004330510569F4322F2227EF85F8898081DF
:101B40009181280F391F3183208384E090E0CBCF2F
:101B50004430510581F460E071E00E94AA298F3F72
:101B6000910531F485E090E0F1019183808333CFDA
:101B70001182108230CF4530510571F4EB89FC8918
:101B80003183208386E090E0D1018D939C93E98995
:101B9000FA89318320831FCF46305105A9F4322FB3
:101BA0002227AB89BC898D919C911197280F391FF1
:101BB0002D933C9387E090E0F10191838083AF8582
:101BC000B8898D919C9157CF4830510509F003CFCA
:101BD000F1011182108260E071E00E94AA298F3F1A
:101BE000910509F0F8CEAB89BC898D919C91009745
:101BF00009F0C6C0C8010E94831A86E292E09A8367
:101C000089831C821B828DE593E09E838D83988758
:101C10008F839A8789871B861C861D861E8668018E
:101C2000B8EECB1ABBEFDB0A7801E6EBEE1AEBEF6E
:101C3000FE0A412C22E0522E612C712CD601ED912E
:101C4000FC913097A9F1848195819C838B8380815D
:101C500091819E838D8382819381DC01ED91FC9142
:101C60000480F581E02D199598878F83D601ED9139
:101C7000FC9182819381DC01ED91FC910680F781DA
:101C8000E02D19959A8789874B865C866D867E86BE
:101C9000D601ED91FC9160857185D801ED91FC91A3
:101CA0000190F081E02DAE014F5F5F4FC8011995A3
:101CB000B2E0CB0ED11CEC14FD0409F0BFCF412CD7
:101CC00092E0592E612C712CF701A081B1811097FF
:101CD000E1F112968D919C9113979C838B831496BE
:101CE0008D919C9115979E838D83ED91FC91119719
:101CF0000480F581E02DCD01199598878F83D70158
:101D00008D919C91DC01ED91FC910680F781E02D95
:101D100019959A8789874B865C866D867E86D80161
:101D2000ED91FC91C080D180F70180819181DC012F
:101D3000ED91FC910280F381E02D1995AE014F5F8A
:101D40005F4FBC01C801F6011995F2E0EF0EF11CDE
:101D5000E214F30409F0B8CFF801EA57FB4F81E031
:101D60008083319680829182A282B382AD89BE89BE
:101D70008D929D92AD92BC9213978FEF9FEFFDC015
:101D80008A30910509F0A2C08AE592E09A8389839E
:101D90001B821C821D821E821F82188619861A864B
:101DA0000E94751DF801C084D184E284F3849B01F4
:101DB000AC012C193D094E095F0969017A016F894F
:101DC000788DCE0101960E941B11C701B60128EE45
:101DD00033E040E050E00E945D29CB80DC80ED8064
:101DE000FE80C20ED31EE41EF51ECB82DC82ED8285
:101DF000FE829B01AC0160E472E48FE090E00E94FF
:101E00008E29CF80D884E984FA84DC01CB018C0D43
:101E10009D1DAE1DBF1D8F839887A987BA870E941D
:101E2000751DCF80D884E984FA8436E3D31A35E669
:101E3000E30A34ECF30A28EE33E040E050E00E947D
:101E40005D2929013A019B01AC0160E472E48FE055
:101E500090E00E948E29A7019601261B370B480BA4
:101E6000590BCA01B901CB80DC80ED80FE8031E0E6
:101E7000C31AD108E108F108A70196012419350910
:101E80004609570929013A0120E03AEC4AE95BE3A7
:101E90000E945D2973016201C20ED31EE41EF51E6D
:101EA000D8011C96CD92DD92ED92FC921F97F8011D
:101EB000608B718B828B938B0E94751DAD89BE895F
:101EC0006D937D938D939C93139785CD863091056B
:101ED00059F46F89788D8D8D9E8D0E94C91481E093
:101EE000EF8DF8A1808377CD8B30910521F4AB8DF8
:101EF000BC8D1C9270CDFC01EF53FE4FEE0FFF1F07
:101F0000E00FF11F80819181009709F464CDDC011D
:101F1000ED91FC910190F081E02D6F89788D1995FC
:101F20005ACDF801EA57FB4F8081882321F17801CF
:101F3000B9E7EB1ABBEFFB0AF70180819181A2811F
:101F4000B381A5019401281B390B4A0B5B0BDA0105
:101F5000C901853C9940A105B10568F0C8010E94FE
:101F6000831AD7018D929D92AD92BC92139703C0B4
:101F70008EEF9FEF02C080E090E0A6960FB6F89437
:101F8000DEBF0FBECDBFDF91CF911F910F91FF90AC
:101F9000EF90DF90CF90BF90AF909F908F907F9009
:101FA0006F905F904F903F902F90089580916A06B8
:101FB00090916B060C9420188091680690916906A8
:101FC0000C94201880916606909167060C94201856
:101FD00080916406909165060C94201880916206A9
:101FE000909163060C942018809160069091610690
:101FF0000C942018CF92DF92EF92FF92FC01108296
:10200000118212821382DB0120E030E04D9150E01A
:10201000022E02C0440F551F0A94E2F7052E000C51
:10202000660B770BC080D180E280F3804C295D295C
:102030006E297F294083518362837383285F3F4FDA
:102040002032310519F7FF90EF90DF90CF9008957F
:10205000CF92DF92EF92FF9220E030E06A017B01A5
:10206000022E04C0F694E794D794C7940A94D2F74A
:10207000FC01C192CF01285F3F4F2032310571F73B
:10208000FF90EF90DF90CF9008958FE594E0089552
:1020900080E894E00895FC01DB014D915D916D9124
:1020A0007C911397428353836483758314964D9177
:1020B0005D916D917C9117974683578360877187F7
:1020C00018968D919D910D90BC91A02D828793873C
:1020D000A487B5878CE090E00895DC01FB0112969F
:1020E0003C91129713962C91139714969C911497E8
:1020F00015968C911597308321839283838316964E
:102100003C91169717962C91179718969C911897B3
:1021100019968C91199734832583968387831A9611
:102120003C911A971B962C911B971C969C911C977F
:102130001D968C9130872187928783878CE090E071
:1021400008958EE894E008958FEA94E0089585EC70
:1021500094E0089586EE94E00895FC01DB014D9132
:102160005D916D917C911397428353836483758352
:1021700014964D915D916D917C911797468357838D
:102180006087718718968D919D910D90BC91A02DBF
:1021900082879387A487B5878CE090E00895DC015F
:1021A000FB0112963C91129713962C91139714965B
:1021B0009C91149715968C91159730832183928367
:1021C000838316963C91169717962C91179718961D
:1021D0009C91189719968C9119973483258396832F
:1021E00087831A963C911A971B962C911B971C96E5
:1021F0009C911C971D968C913087218792878387AD
:102200008CE090E008958BEF94E008958EE292E0E8
:1022100008958CE195E008958DE395E0089580E5BB
:1022200095E0089581E795E008958AE895E008959E
:102230008BEA95E00895FC01DB014C9150E060E0F1
:1022400070E0428353836483758311968C91119758
:10225000582B428353836483758312968C91129713
:10226000682B428353836483758313968C911397F1
:10227000782B428353836483758314964C9114970F
:1022800050E060E070E04683578360877187159661
:102290008C911597582B46835783608771871696C4
:1022A0008C911697682B46835783608771871796A2
:1022B0008C91782B468357836087718788E090E004
:1022C0000895DC01FB0112968C911297808313967E
:1022D0008C911397818314968C9114978283159611
:1022E0008C911597838316968C91169784831796F5
:1022F0008C911797858318968C91189786831996D9
:102300008C91878388E090E008958F929F92AF929E
:10231000BF92CF92DF92EF92FF920F931F93FC0137
:10232000DB01C380C294C69427E0C2228C2C912C7E
:10233000A12CB12C8D929D92AD92BC9213970481E9
:1023400010E020E030E043E0000F111F221F331F98
:102350004A95D1F768017901C828D928EA28FB28CD
:10236000CD92DD92ED92FC921397458150E060E0B2
:1023700070E01BE0440F551F661F771F1A95D1F7B9
:102380008A019B010C291D292E293F290D931D939C
:102390002D933C93139746814F7050E060E070E0BE
:1023A00083E1440F551F661F771F8A95D1F7402B95
:1023B000512B622B732B4D935D936D937C931397ED
:1023C000868182958F7007810F7710E020E030E0E2
:1023D00094E0000F111F221F331F9A95D1F7082B8D
:1023E0000115110521053105A1F0005813402109FF
:1023F000310997E1000F111F221F331F9A95D1F762
:10240000042B152B262B372B0D931D932D933C93CB
:1024100013974781407850E060E070E0742F6627A2
:10242000552744270D911D912D913C911397402BD9
:10243000512B622B732B4D935D936D937C9313976C
:1024400088E090E01F910F91FF90EF90DF90CF9088
:10245000BF90AF909F908F900895EF92FF920F934F
:102460001F93CF93DF938C017B01BC016E5F7F4F85
:10247000C7010E948511EC01B8016A5F7F4FC70157
:102480008C0F9D1F0E948511C80FD91FB801665F70
:102490007F4FC7018C0F9D1F0E9485118C0F9D1FC0
:1024A000DF91CF911F910F91FF90EF900895EF92E0
:1024B000FF920F931F93CF93DF937C018B010296C2
:1024C0000E942D12EC01B801680F791FC7014096D8
:1024D0000E942D12C80FD91FB8016C0F7D1FC701B4
:1024E0004E960E942D128C0F9D1FDF91CF911F9150
:1024F0000F91FF90EF900895EF92FF920F931F932B
:10250000CF93DF937C01EB0102960E942D128C0188
:10251000BE01680F791FC70140960E942D12800FDF
:10252000911FDF91CF911F910F91FF90EF90089530
:102530008F929F92AF92BF92CF92DF92EF92FF92D3
:10254000CF93DF93EC014A015B01DB01CA0157E144
:10255000B595A795979587955A95D1F79927AA2765
:10256000BB270097A105B10521F080589C4FAF4FC4
:10257000BF4F188219821A82B501A40125E0440FC9
:10258000551F661F771F2A95D1F74B83B501A4010C
:1025900033E075956795579547953A95D1F74C83F4
:1025A000B501A401EBE07595679557954795EA95B8
:1025B000D1F74D83B501A401F3E175956795579562
:1025C0004795FA95D1F7242F2F70AC01BD0134E067
:1025D000440F551F661F771F3A95D1F7422B4E8344
:1025E0006C017D0144E0F594E794D794C7944A9533
:1025F000D1F720E030E0A901C501B4010E94472ACB
:1026000087FD02C0CF8203C08C2D80688F8388E055
:1026100090E0DF91CF91FF90EF90DF90CF90BF904F
:10262000AF909F908F900895EF92FF920F931F931A
:10263000CF93DF937C018B01FC0142815381648144
:102640007581C8010E949812EC01F70146815781FB
:1026500060857185C8018C0F9D1F0E949812C80F5C
:10266000D91FF7014285538564857585C8018C0F94
:102670009D1F0E9498128C0F9D1FDF91CF911F917B
:102680000F91FF90EF900895EF92FF920F931F9399
:10269000CF93DF937C018B0102960E941413EC010F
:1026A000B801680F791FC70140960E941413C80F24
:1026B000D91FB8016C0F7D1FC7014E960E941413DD
:1026C0008C0F9D1FDF91CF911F910F91FF90EF9085
:1026D0000895EF92FF920F931F93CF93DF937C01A6
:1026E000EB0102960E9414138C01BE01680F791F42
:1026F000C70140960E941413800F911FDF91CF9164
:102700001F910F91FF90EF9008954F925F926F92FB
:102710007F928F929F92AF92BF92EF92FF920F9310
:102720001F93CF93DF9300D01F92CDB7DEB77C010C
:102730008B01FB018191BF01F7018283CE010196DC
:102740000E94FA0F89819A81AB81BC814C015D01A5
:10275000F5E08F0E911CA11CB11CA8014C5F5F4FCE
:10276000FA0125E030E02901612C712C481459044C
:102770006A047B0428F4618161932F5F3F4FF3CF9C
:10278000F801E80FF91F1482F7015483438305967B
:102790000F900F900F900F90DF91CF911F910F919D
:1027A000FF90EF90BF90AF909F908F907F906F9031
:1027B0005F904F9008954F925F926F927F928F92A9
:1027C0009F92AF92BF92CF92DF92EF92FF920F93C0
:1027D0001F93CF93DF93CDB7DEB72C970FB6F89446
:1027E000DEBF0FBECDBF7C018B01DB018C9190E081
:1027F000F7019383828311962C91922B938382838A
:102800006E5F7F4FCE0101960E94FA0F89809A80F9
:10281000AB80BC8024013501F6E04F0E511C611CD9
:10282000711C98012B5F3F4FF90186E090E0AC01ED
:1028300060E070E0441555056605770520F4418198
:1028400041930196F4CFF801E80DF91D1582D701E7
:1028500015963C932E931497B4016A5F7F4F600FD7
:10286000711FCE0105960E94FA0FBAE08B0E911CE3
:102870004D805E806F807884A401092C000C660B6B
:10288000770B440D551D661D771DD801A80DB91D88
:10289000CD01801B910B5C01C12CD12CA416B50677
:1028A000C606D70628F48D91FD0132978083F0CFBC
:1028B0005401A40CB51CB8016A0D7B1DFB013197B6
:1028C0001082C4010197800F911FF70197838683BF
:1028D000CE0109960E94FA0F95012C5F3F4F898522
:1028E0009A85AB85BC852901032E000C6608770804
:1028F000480E591E6A1E7B1EF5013396E00FF11F2C
:10290000A9014A01A12CB12C84149504A604B70492
:1029100028F4618161934F5F5F4FF3CF820F931F64
:10292000F801E80FF91FDF0111971C9221503109BE
:10293000020F131FD70119961C930E93189721812C
:10294000428150E060E070E0BA0155274427522BE5
:102950002081422B2381722BF701428753876487A2
:10296000758704962C960FB6F894DEBF0FBECDBFC8
:10297000DF91CF911F910F91FF90EF90DF90CF905B
:10298000BF90AF909F908F907F906F905F904F908F
:1029900008952F923F924F925F926F927F928F9203
:1029A0009F92AF92BF92CF92DF92EF92FF920F93DE
:1029B0001F93CF93DF93CDB7DEB760970FB6F89430
:1029C000DEBF0FBECDBF8C016B01DB018D909D90F2
:1029D000AD90BC90FC0182819381A481B581881562
:1029E0009905AA05BB0570F4B401660F771F660F41
:1029F000771F828593850E94B92CD8011B969C93E2
:102A00008E931A97F80182829382A482B5829601EE
:102A1000812C912C540144E050E0B8016A5F7F4F53
:102A20002C5F3F4FF80182819381A481B581FA0127
:102A300034961F0188169906AA06BB0650F5D901DF
:102A40001196FC90119712968C9190E0A0E0B0E066
:102A5000DC01992788279F29F901F0808F29F380CD
:102A6000BF29F80186839783A087B187DA01A10186
:102A7000149782859385A80FB91F84E0FB0101900C
:102A80000D928A95E1F7FFEF8F1A9F0AAF0ABF0AEE
:102A9000C7CF4601840E951ED4018C9111969C914E
:102AA000119712964C901297512C612C712C320177
:102AB00055244424592A482A13968C91782A5F0178
:102AC000F80184859585A685B78584159505A605A5
:102AD000B70570F4B201660F771F660F771F848900
:102AE00095890E94B92CD80155969C938E93549742
:102AF000F8014486558666867786C401412C512CA0
:102B000032019801205F3F4FD8011C964D915D9195
:102B10006D917C911F97F501349644165506660613
:102B2000770698F5DC011596FC90159716964C9152
:102B3000169750E060E070E0BA01552744275F29FE
:102B40001496FC9014974F291796FC907F29D80172
:102B500050964D935D936D937C9353975F01AC01B9
:102B60004819590954960D90BC91A02DA40FB51F7A
:102B700044E0F90101900D924A95E1F7BFEF4B1A3D
:102B80005B0A6B0A7B0A0496BFCFD601AA0DBB1D58
:102B90008C9111969C91119712968C901297912C72
:102BA000A12CB12C540199248824992A882A13969F
:102BB0008C91B82A7F01F80186899789A08DB18D03
:102BC00088159905AA05BB0560F4B401660F771F47
:102BD000848D958D0E94B92CD8015D969C938E931F
:102BE0005C97F801868A978AA08EB18E212C312CB1
:102BF000812C912C54019801265E3F4F3A872987FA
:102C0000F80186899789A08DB18D88169906AA0644
:102C1000BB0608F05FC0B6016E0D7F1DCE010196A8
:102C20000E94FA0F97012C5F3F4F388B2F87498105
:102C30005A816B817C81C901330FAA0BBB0B2C011C
:102C40003D01440E551E661E771E4B865C866D86C2
:102C50007E8623E0E20EF11CF601EE0DFF1D2F85AE
:102C60003889C901A0E0B0E04B845C846D847E8427
:102C700084159505A605B70528F4A181A1932F5FBA
:102C80003F4FEFCF6F847888460D571DF601E40F54
:102C9000F51F31971082C30101978C0D9D1DD8013E
:102CA0005B969C938E935A977A015C96ED91FC917A
:102CB0005D97E20DF31DA985BA858D919C91918355
:102CC0008083BFEF8B1A9B0AAB0ABB0AE2E02E0E91
:102CD000311C96CFC70160960FB6F894DEBF0FBEC9
:102CE000CDBFDF91CF911F910F91FF90EF90DF90BB
:102CF000CF90BF90AF909F908F907F906F905F909C
:102D00004F903F902F9008954F925F926F927F92D5
:102D1000AF92BF92CF92DF92EF92FF920F931F93E9
:102D2000CF93DF93EC018B018A81FB0180838B8140
:102D300081838C8182838D818383DB0140E050E03D
:102D4000BA01E4E0F0E01496CA80DB80EC80FD80FC
:102D5000CF0104964C155D056E057F05C8F42A85E4
:102D60003B85E20FF31F3497D080F18032812381BD
:102D7000DC921196FC92119712963C93129713963F
:102D80002C931397FC014F5F5F4F6F4F7F4FDBCF4B
:102D90005F01A00EB11E2C85F50120832D852183B6
:102DA0002E8522832F852383D50140E050E0BA0190
:102DB000CC84DD84EE84FF849C012C5F3F4F4C1556
:102DC0005D056E057F05F8F4CD018A199B09EC8835
:102DD000FD888E0D9F1DFC01D080E180F2808381F3
:102DE0001496DC9214971596EC9215971696FC9211
:102DF000169717968C931797C9014F5F5F4F6F4FC8
:102E00007F4F1496D5CFF801E80FF91F8E89808384
:102E10008F898183888D8283898D83837901A12C19
:102E2000B12C412C512C32018E899F89A88DB98DEE
:102E3000481659066A067B0680F5EC8DFD8DEA0D75
:102E4000FB1DA081B181FD0101900020E9F73197C0
:102E50006F01CA1ADB0AA60160E070E0C8018E0D9E
:102E60009F1D0E942810F4E0EF0EF11CEC8DFD8DEB
:102E7000EA0DFB1D60817181A601C8018E0D9F1DA9
:102E80000E94A32DEC0CFD1C8FEF481A580A680A0B
:102E9000780AE2E0AE0EB11CC7CFC701DF91CF9137
:102EA0001F910F91FF90EF90DF90CF90BF90AF9068
:102EB0007F906F905F904F900895EF92FF920F93E5
:102EC0001F93CF93DF938C017B01DC0112962C9131
:102ED0001297FB012193CF011396ED91FC9114976A
:102EE000EF0109900020E9F72197CE1BDF0BAE011F
:102EF00060E070E00E942810D80113966D917C91DB
:102F00001497AE01C70105960E94A32DCE01059628
:102F1000DF91CF911F910F91FF90EF900895CF9285
:102F2000DF92EF92FF920F931F93CF93DF937C0179
:102F30008B01DC0112968C911297FB018083139612
:102F40008C91139781831496ED91FC911597EF0165
:102F500009900020E9F72197CE1BDF0BAE0160E05E
:102F600070E0C80102960E942810D70114966D9156
:102F70007C911597AE01C80106960E94A32DCE0143
:102F80000696F701A681B781FD0101900020E9F7BF
:102F900031976F01CA1ADB0AA60160E070E0800F6A
:102FA000911F0E9428102A96D70116966D917C9148
:102FB0001797A601C8018C0F9D1F0E94A32DCC0D51
:102FC000DD1DD7011896ED91FC911997DF010D9049
:102FD0000020E9F711976D01CE1ADF0AA60160E023
:102FE00070E0C8018C0F9D1F0E9428102496F701E5
:102FF00060857185A601C8018C0F9D1F0E94A32DBD
:10300000C6018C0F9D1FD7011A966C911A971B96BB
:103010004C911B971C963C911C971D962C91F80186
:10302000E80FF91F60834183328323830496DF9185
:10303000CF911F910F91FF90EF90DF90CF90089567
:10304000DC01ED91FD918081ED91FD919081ED91FB
:10305000FD916C9163708E2309F064609F2309F0E9
:103060006860EDE3F8E1E60FF11D659565956D93F8
:103070006D917D918D919D91099423C01AC012C0CC
:1030800016C010C01EC009C014C013C006C019C0AD
:1030900009C00DC007C00DC014C062507040804010
:1030A00090400BC0615070408040904006C06E5F01
:1030B00001C06F5F7F4F8F4F9F4F9E938E937E9384
:1030C0006E930895CF93DF93EC018D89823030F4B5
:1030D000F894CE010A960E94201801C0F8946989DC
:1030E0007A898B899C897894DF91CF9108954F924A
:1030F0005F926F927F928F929F92AF92BF92CF9288
:10310000DF92EF92FF92CF93DF9300D000D0CDB744
:10311000DEB79E838D830E9462186B017C010E9442
:10312000751D4B015C01ED81FE8182819381A4813B
:10313000B581A5019401281B390B4A0B5B0BCA0111
:10314000B9010E94F42A20E030E64AE657E40E94E2
:103150004C2A69837A838B839C83ED81FE818681EF
:103160009781A085B185A7019601281B390B4A0BD1
:103170005B0BCA01B9010E94F62A2B013C01ED81CB
:10318000FE8182829382A482B582C682D782E08643
:10319000F18660817181072E000C880B990B0E94CB
:1031A000F62A9B01AC01C301B2010E944C2A29817D
:1031B0003A814B815C810E944C2A0E94BE2ACB013D
:1031C00026960FB6F894DEBF0FBECDBFDF91CF912C
:1031D000FF90EF90DF90CF90BF90AF909F908F9037
:1031E0007F906F905F904F900895FC018EE492E085
:1031F0009183808312821382148215821682178231
:103200001086118612861386148615860895EF920D
:10321000FF920F931F93CF93DF93EC01062F142F90
:1032200062E0802F0E944B1C62E0812F0E944B1CA9
:103230008EE096E099838883802F90E0FC01E05532
:10324000FC4FE491F0E0EE0FFF1FEA56FC4FA59112
:10325000B491BB87AA87FC01E05BFC4F24912E87C9
:10326000812F90E0FC01E055FC4FE491F0E0EE0F7F
:10327000FF1FEA56FC4F459154915D874C87FC0136
:10328000E05BFC4F94919F87198A1A8A1B8A1C8ADB
:10329000EBE3FFE13197F1F7EC91E22331E009F440
:1032A00030E0DA01EC91E92309F03260388B7E01DD
:1032B000BAE0EB0EF11CB701802F0E94E4258D8B44
:1032C000B701812F0E94E4259D89890F8D8BDF91A5
:1032D000CF911F910F91FF90EF900895CF93DF93BF
:1032E000EC01CB016091F007603398F471E0760F48
:1032F0007093F007688370E0FB01EE0FFF1F6E0F05
:103300007F1FFB01E05AF84F68EB7BE0728361831B
:1033100002C06FEF68831C821B828D839E83588757
:103320004F833A87298761E00E944B1C61E08F81BF
:103330000E944B1C61E089850E944B1C60E070E09C
:103340008D81DF91CF910C94871C282F3091B60688
:10335000313208F04AC0809192068111FCCF9091E1
:10336000B50642E040939206209391062FEF2093FA
:10337000900610928F0630938E06E5E9F6E0AEE6F1
:10338000B6E020E0321721F041914D932F5FFACF44
:1033900010926D0620916D06990F922B90936D06F9
:1033A00090916C06913061F410926C0690916D06CC
:1033B0009093BB009091BC0093FDF8CF95EC01C0B9
:1033C00095EE9093BC00909192069230E1F390912B
:1033D00090069F3F79F080919006803241F0809175
:1033E0009006803331F084E005C081E003C082E0C4
:1033F00001C083E0109294061092B60610929306D4
:103400000895DF92EF92FF920F931F93CF93DF9374
:103410001F92CDB7DEB7F82EE62ED42E08EE13E0BD
:103420009E012F5F3F4F41E06DE20E94BA07898104
:1034300041E050E001C0440FEA94EAF7DD2011F0CA
:10344000482B02C04095482349836DE28F2D0E948E
:103450009D070F90DF91CF911F910F91FF90EF90FB
:10346000DF900895CF92DF92EF92FF92BC0160321D
:1034700082E078070CF03FC077FD06C0653B710520
:103480002CF064EB70E002C060E070E08091F40D1D
:1034900028E830E06901C81AD10887FDD394CC0C24
:1034A000DD1CCC0CDD1C0D2C000CEE08FF088091FF
:1034B000F50D28E532E0281B310987FD3395220FF1
:1034C000331F220F331FC901330FAA0BBB0B9C0103
:1034D000AD012C193D094E095F09DB010E945529F8
:1034E00024EB30E040E050E00E942B29C20ED31EB6
:1034F000E41EF51EB60183EF9DE0FF90EF90DF9094
:10350000CF900C94FA090F931F93CF93DF93CDB70D
:10351000DEB72A970FB6F894DEBF0FBECDBF8C0181
:103520008AE592E09A8389831B821C821D821E8217
:103530001F82188619861A86D801ED91FC91019098
:10354000F081E02DAE014F5F5F4F6AE070E0C8018F
:1035500019950E94751DF80160877187828793878E
:103560002A960FB6F894DEBF0FBECDBFDF91CF9184
:103570001F910F9108952F923F924F925F926F92F9
:103580007F928F929F92AF92BF92CF92DF92EF92F3
:10359000FF920F931F93CF93DF93CDB7DEB7619761
:1035A0000FB6F894DEBF0FBECDBF29013A01E98600
:1035B000FA860B871C87C090410DD090420DE09099
:1035C000430DF090440D20E030E040E752E40E94CB
:1035D000AB2BA70196010E944C2A4B015C0120E015
:1035E00030E040E752E4C301B2010E94AB2BA701D7
:1035F00096010E944C2A6D877E878F87988B20E0EA
:1036000030E040E05FE36091350D7091360D8091C0
:10361000370D9091380D0E94AB2B2B013C0120E01F
:1036200030E040E05FE36091390D70913A0D809198
:103630003B0D90913C0D0E94AB2B9B01AC01C30153
:10364000B2010E94DB292B013C0120E030E040E781
:1036500052E469857A858B859C850E94AB2B9B0102
:10366000AC01C301B2010E94AB2BA70196010E94DD
:103670004C2A6B017C012D853E854F855889C501FB
:10368000B4010E94DA292B013C01A70196010E9496
:10369000DA290E94BE2A2090330D3090340D002785
:1036A0001127021913096017710744F07A87698797
:1036B000261637062CF43A86298602C01A8709870F
:1036C0002D853E854F855889C501B4010E94DB29AF
:1036D0004B015C019B01AC01C701B6010E94DB29D3
:1036E0000E94BE2A6017710744F02D86398A621540
:1036F00073052CF46D87798B02C00D87198BA70198
:103700009601C501B4010E94DA290E94BE2A601701
:10371000710744F0B22CA32C621573052CF4B62E5D
:10372000A72E02C0B02EA12EA3019201C701B6019F
:103730000E94DB290E94BE2A601771072CF08101CC
:10374000621573050CF48B0189859A859A838983A8
:103750009D85898918870F8329853A81492F582F9C
:103760006B2D7A2D802F988561960FB6F894DEBF69
:103770000FBECDBFDF91CF911F910F91FF90EF90C2
:10378000DF90CF90BF90AF909F908F907F906F9081
:103790005F904F903F902F900895362F90E0FC015E
:1037A000E65FFC4F4491FC01E05BFC4F2491FC017F
:1037B000E055FC4F9491992309F46CC0442309F41B
:1037C00055C050E0FA013197E231F10508F04EC0E2
:1037D0008827EE58FF4F8F4F0C94BE2980918000B0
:1037E0008F7707C0809180008F7D03C0809180001B
:1037F000877F809380003AC084B58F7702C084B5FC
:103800008F7D84BD33C08091B0008F7703C08091DD
:10381000B0008F7D8093B00029C0809190008F7799
:1038200007C0809190008F7D03C080919000877FBA
:10383000809390001BC08091A0008F7707C080917B
:10384000A0008F7D03C08091A000877F8093A0009F
:103850000DC0809120018F7707C0809120018F7D5E
:1038600003C080912001877F80932001E92FF0E041
:10387000EE0FFF1FE051FD4FA591B4919FB7F89453
:10388000311104C08C912095282302C0EC912E2B7D
:103890002C939FBF0895CF93DF9390E0FC01E05BF2
:1038A000FC4F2491FC01E055FC4F8491882361F189
:1038B00090E0880F991FFC01EA50FC4FC591D4910C
:1038C000FC01E051FD4FA591B491611109C09FB772
:1038D000F8948881209582238883EC912E230BC055
:1038E000623061F49FB7F8948881322F309583233A
:1038F0008883EC912E2B2C939FBF06C08FB7F89432
:10390000E8812E2B28838FBFDF91CF9108951F93DD
:10391000CF93DF93182FEB0161E00E944B1C20979F
:1039200011F460E004C0CF3FD10539F461E0812F8C
:10393000DF91CF911F910C94CD1BE12FF0E0E65F5A
:10394000FC4FE4918E2F90E0FC013197E231F105BC
:1039500008F09DC08827EC57FF4F8F4F0C94BE296D
:1039600084B5806884BDC7BD97C084B5806284BDBE
:10397000C8BD92C080918000806880938000D09301
:103980008900C093880088C0809180008062809305
:103990008000D0938B00C0938A007EC0809180000D
:1039A000886080938000D0938D00C0938C0074C099
:1039B0008091B00080688093B000C093B3006CC069
:1039C0008091B00080628093B000C093B40064C066
:1039D00080919000806880939000D0939900C0936C
:1039E00098005AC080919000806280939000D0939C
:1039F0009B00C0939A0050C0809190008860809393
:103A00009000D0939D00C0939C0046C08091A00080
:103A100080688093A0008091A0008F7B8093A0009D
:103A2000D093A900C093A80037C08091A000806205
:103A30008093A000D093AB00C093AA002DC08091CA
:103A4000A00088608093A000D093AD00C093AC002C
:103A500023C080912001806880932001D0932901A8
:103A6000C093280119C080912001806280932001B9
:103A7000D0932B01C0932A010FC080912001886050
:103A800080932001D0932D01C0932C0105C0C03834
:103A9000D1050CF04BCF45CFDF91CF911F91089509
:103AA0003FB7F8948091690E90916A0EA0916B0EC9
:103AB000B0916C0E26B5A89B05C02F3F19F001965A
:103AC000A11DB11D3FBFBA2FA92F982F8827820FA4
:103AD000911DA11DB11DBC01CD0142E0660F771FF4
:103AE000881F991F4A95D1F708952FB7F8946091D0
:103AF000650E7091660E8091670E9091680E2FBFD3
:103B000008951F920F920FB60F9211242F933F9397
:103B10008F939F93AF93BF938091650E9091660EA4
:103B2000A091670EB091680E3091640E23E0230FD0
:103B30002D3720F40196A11DB11D05C026E8230FE5
:103B40000296A11DB11D2093640E8093650E909383
:103B5000660EA093670EB093680E8091690E9091E7
:103B60006A0EA0916B0EB0916C0E0196A11DB11D55
:103B70008093690E90936A0EA0936B0EB0936C0EB7
:103B8000BF91AF919F918F913F912F910F900FBE59
:103B90000F901F901895CF93DF93CDB7DEB7C75422
:103BA000D1090FB6F894DEBF0FBECDBF789484B5AF
:103BB000826084BD84B5816084BD85B5826085BD29
:103BC00085B5816085BD80916E00816080936E00B7
:103BD00010928100809181008260809381008091A9
:103BE000810081608093810080918000816080935A
:103BF00080008091B10084608093B1008091B0001A
:103C000081608093B00080919100826080939100E8
:103C100080919100816080939100809190008160FB
:103C2000809390008091A10082608093A100809198
:103C3000A10081608093A1008091A00081608093A9
:103C4000A000809121018260809321018091210157
:103C50008160809321018091200181608093200107
:103C600080917A00846080937A0080917A008260EB
:103C700080937A0080917A00816080937A008091AD
:103C80007A00806880937A001092C1008091F30DD1
:103C9000803308F052C061E087E00E944B1C8091A5
:103CA000F30DE82FF0E09F01220F331FE20FF31F07
:103CB000E05AF84F9081907C976090831092F40DB9
:103CC0001092F50D6CE00E949E292CE0829FB001BD
:103CD000112440E050E09B01240F351FF901EE0F45
:103CE000FF1F2E0F3F1FF901E05AF84F908196FDFC
:103CF00017C04F5F5F4F4C30510569F7813009F0B5
:103D000037C71092800082E0809381001092850076
:103D100010928400B19A80916F00826080936F004E
:103D2000E091F30DF0E0CF01880F991FE80FF91F24
:103D3000E05AF84F8081806480838AE590E00E9499
:103D4000321AC0908308D0908408E0908508F090E3
:103D50008608009181081091820860E079E08DE387
:103D600090E0A70196010E945D29DA01C90101973F
:103D7000A109B109B695A795979587959C01D8019A
:103D80005096ED91FC91519782E08083C114B1EE81
:103D9000DB06E104F10421F02115E0E13E07C0F06B
:103DA000D8015096ED91FC915197108260E874E82B
:103DB0008EE190E0A70196010E945D29DA01C90118
:103DC0000197A109B109B695A795979587959C018B
:103DD000D8011C96ED91FC911D9730831E96ED91B4
:103DE000FC911F97208358961C9258975496ED91FA
:103DF000FC91559786E080835296ED91FC91539704
:103E00008081806180835296ED91FC9153978081EF
:103E1000886080835296ED91FC91539780818068F1
:103E200080835296ED91FC91539780818F7D8083A2
:103E30001092FC0C1092FB0C1092FE0C1092FD0CD8
:103E40001092020D1092010D1092000D1092FF0CB5
:103E500080E091EEA0E0B0E0809383089093840826
:103E6000A0938508B0938608A9ECBCE0FD0180E032
:103E700090E021913191232B81F4FC01EE0FFF1F83
:103E8000E753F34F2FE338E0318320838C599F4F62
:103E9000909342088093410804C0019689319105AE
:103EA00041F780E090E02D913D91232B81F4FC01BE
:103EB000EE0FFF1FE753F34F27E538E031832083F0
:103EC0008C599F4F90935A088093590804C00196CB
:103ED0008931910541F7A7E9BCE0FD0180E090E060
:103EE00021913191232BB1F4FC01EE0FFF1FE95614
:103EF000F34F21EF37E03183208383589F4F909316
:103F0000F6078093F5078FE798E09093F807809382
:103F1000F70704C001968931910511F780E090E020
:103F20002D913D91232BB1F4FC01EE0FFF1FE956BB
:103F3000F34F29E038E03183208383589F4F9093DB
:103F40000E0880930D088FE798E0909310088093F7
:103F50000F0804C001968931910511F7B091050D44
:103F60002896BFAF2897B11105C08FE798E00E944F
:103F7000690CF4CF42EF52E061E08FE798E00E94D5
:103F8000480B0E94501D6B017C010E94501DDC01FA
:103F9000CB018C199D09AE09BF09883E9340A1054C
:103FA000B10598F39E012F5F3F4F19010E94751DC7
:103FB0000091F5051091F6052091F7053091F8056F
:103FC000DC01CB01801B910BA20BB30BC297A105A7
:103FD000B10508F4AEC2E090D605F090D705009187
:103FE000D8051091D9056091DE057091DF058091AB
:103FF000E0059091E1052091310D3091320D223094
:10400000310520F420E030E0A90117C0A901425099
:1040100051094230510530F4E12CF12C8701A801FF
:1040200097010BC02430310591F42091DA053091CD
:10403000DB054091DC055091DD050E94BB1A298308
:104040003A834B835C836D837E838F83988788E07C
:10405000F101DE01D39601900D928A95E1F70BA94B
:104060001CA96DA87EA84FA858AC49AD5AAD25969D
:104070005FAF4EAF259788E39EE00E9477189CAF14
:104080008BAF82E29EE00E94771827969FAF8EAF9B
:1040900027978CE09EE00E94771821969FAF8EAF05
:1040A000219786EF9DE00E94771823969FAF8EAFF1
:1040B0002397ABADBCADBD01BB0F880B990B0E9424
:1040C000F62A6B017C01B801110F880B990B0E9435
:1040D000F62A4B015C0197018601AB01BC0187EA1E
:1040E0009DE00E94F7060E94BE2A9F938F937F93C4
:1040F0006F93E5E0F3E0FF93EF933F922F920E94DE
:10410000AC2DA10161E08FE798E00E94480B970178
:104110008601B501A40187EA9DE00E94F7060E948E
:10412000BE2A88EE9DE00E94300A27964EAD5FAD14
:104130002797BA01550F880B990B0E94F62A6B013D
:104140007C01B301770C880B990B0E94F62AAB0116
:10415000BC019701860187E89DE00E94F7060E9456
:10416000BE2A8DED9DE00E94300A2196AEADBFAD16
:104170002197BD01BB0F880B990B0E94F62A6B019A
:104180007C01B201550C880B990B0E94F62AAB01F9
:10419000BC019701860187E69DE00E94F7060E9418
:1041A000BE2A82ED9DE00E94300A2396EEADFFAD5F
:1041B0002397BF01FF0F880B990B0E94F62A6B0112
:1041C0007C0125962EAD3FAD2597B901330F880BA5
:1041D000990B0E94F62AAB01BC019701860187E486
:1041E0009DE00E94F7060E94BE2A87EC9DE00E9497
:1041F000300A4091310D5091320D25965FAF4EAF90
:104200002597CA0102970FB6F894DEBF0FBECDBF47
:10421000EBACFCAC2796EEADFFAD2797EE0EFF1E84
:10422000029708F095C08090D6059090D705A09091
:10423000D805B090D90521EE3AE744ED5EEBC50113
:10424000B4010E94472A87FD13C021EE3AE744EDEE
:104250005EE3C501B4010E94A62B18168CF441EE52
:10426000842E4AE7942E44EDA42E4EE3B42E08C0CB
:1042700031EE832E3AE7932E34EDA32E3EEBB32E90
:1042800021EE3AE744ED5EE3C501B4010E94DB296B
:104290002BED3FE049E450EC0E94AB2B21EE3AE7D6
:1042A00044E55FE30E944C2A2BED3FE049E450E4F3
:1042B0000E94DB2920EE3EE245E652E40E94AB2B51
:1042C0000E94BE2ACB010E94321AB701FF0C880B54
:1042D000990B0E94F62A6B017C016091450D70914B
:1042E000460D072E000C880B990B0E94F62A9B01A5
:1042F000AC01C701B6010E944C2A20E030E040E743
:1043000052E40E944C2A2091410D3091420D40917F
:10431000430D5091440D0E94AB2B6B017C01C501F4
:10432000B4010E94182C9B01AC01C701B6010E9488
:10433000AB2B2091350D3091360D4091370D5091BA
:10434000380D0E944C2A1BAE1CAE1DAE1EAEBAC06C
:104350006091450D7091460D072E000C880B990B4E
:104360000E94F62A2B013C018090410D9090420D55
:10437000A090430DB090440D21966EAD7FAD219776
:104380006E0D7F1D23962EAD3FAD2397620F731FD9
:10439000072E000C880B990B0E94F62AA3019201AC
:1043A0000E944C2A20E030E040E752E40E944C2A70
:1043B000A50194010E94AB2B6B017C0127960EADE9
:1043C0001FAD27974BAD5CAD041B150B25968EAD2D
:1043D0009FAD2597049729F521966EAD7FAD219766
:1043E000600F711F2396AEADBFAD23976A1B7B0B89
:1043F000072E000C880B990B0E94F62AA30192014C
:104400000E944C2A20E030E040E752E40E944C2A0F
:10441000A50194010E94AB2B6BAF7CAF8DAF9EAF1B
:1044200004C01BAE1CAE1DAE1EAEB8012196EEAD93
:10443000FFAD21976E1B7F0B23962EAD3FAD2397CB
:10444000620F731F072E000C880B990B0E94F62A2F
:10445000A30192010E944C2A20E030E040E752E4A0
:104460000E944C2AA50194010E94AB2B4B015C01D8
:1044700020E030E040E05FE36091350D7091360D53
:104480008091370D9091380D0E94AB2B2B013C0190
:1044900020E030E040E05FE36091390D70913A0D2B
:1044A00080913B0D90913C0D0E94AB2B9B01AC0188
:1044B000C301B2010E94DB299B01AC01C501B4011B
:1044C0000E944C2AC092FD07D092FE07E092FF079F
:1044D000F09200082BAD3CAD4DAD5EAD20930108D0
:1044E0003093020840930308509304086093050832
:1044F0007093060880930708909308088091F70747
:104500009091F8076091F5077091F607DC01ED9145
:10451000FC910190F081E02D4BEF57E019950E943E
:10452000751D6093F5057093F6058093F7059093DC
:10453000F8050E94751D0091E8051091E90520918C
:10454000EA053091EB05DC01CB01801B910BA20B3E
:10455000B30B80399140A105B105C0F01092DE0582
:104560001092DF051092E0051092E1051092DA0535
:104570001092DB051092DC051092DD051092D60535
:104580001092D7051092D8051092D9050E94751D7A
:104590000091F1051091F2052091F3053091F40599
:1045A000DC01CB01801B910BA20BB30BC297A105C1
:1045B000B10508F459C2F090F005F110CFC0109287
:1045C000E7051092E605109294061092B606109236
:1045D000920681E08093910610926C0661E084E17E
:1045E0000E94CD1B61E085E10E94CD1B8091B90046
:1045F0008E7F8093B9008091B9008D7F8093B90040
:10460000F8E4F093B80025E42093BC0042EB53E0BB
:104610005093E5054093E40583EB93E09093E30525
:104620008093E20540E06DE280915D0E0E949D075F
:1046300041E064E080915D0E0E94011A41E063E078
:1046400080915D0E0E94011A08EE13E02EE53EE017
:1046500041E060E080915D0E0E94BA0780915E0E9D
:10466000853E09F06BC0E090560E910141E066E195
:104670008E2D0E94BA07882339F049814861498309
:1046800066E18E2D0E949D07E090560E08EE13E025
:10469000910141E06EE38E2D0E94BA07882341F01C
:1046A0004981487F416049836EE38E2D0E949D07BA
:1046B00008EE13E0910141E060E08091560E0E9407
:1046C000BA07882339F089818E7790E09595879590
:1046D0008093570E8091570E843381F540E760E058
:1046E00080914E0E0E949D0740E261E080914E0E47
:1046F0000E949D0741E062E080914E0E0E949D075E
:1047000081E08093550E08EE13E02FE43EE043E095
:104710006AE080914E0E0E94BA07833079F480914E
:104720004F0E883459F48091500E843339F48091BF
:10473000510E833319F42896FFAC2897F092F005B8
:10474000FF2021F049E153E061E003C049E253E07A
:1047500064E08FE798E00E94480B7CC1C1010E9491
:10476000F51808EE13E02EE53EE046E062E38091A6
:104770005D0E0E94BA076091600E7091610E072E67
:10478000000C880B990B0E94F62A20E030E040E8EC
:104790005BE30E94AB2B23EC35EF4CE151E40E942C
:1047A000AB2B4B015C016091620E7091630E072E82
:1047B000000C880B990B0E94F62A20E030E040E8BC
:1047C0005BE30E94AB2B23EC35EF4CE151E40E94FC
:1047D000AB2B6B017C0160915E0E70915F0E072E1A
:1047E000000C880B990B0E94F62A20E030E040E88C
:1047F0005BE30E94AB2B23EC35EF4CE151E40E94CC
:10480000AB2B609317087093180880931908909346
:104810001A0880921B0890921C08A0921D08B09262
:104820001E08C0921F08D0922008E0922108F09242
:104830002208C1010E94F51827E53EE046E06DE13F
:104840008091560E0E94BA076091590E70915A0ECF
:10485000762767277627072E000C880B990B0E9476
:10486000F62A20E030E046E651E40E944C2A25E397
:104870003AEF4EE85CE30E94AB2B4B015C01609188
:104880005B0E70915C0E762767277627072E000C4B
:10489000880B990B0E94F62A20E030E046E651E4AE
:1048A0000E944C2A25E33AEF4EE85CE30E94AB2BD2
:1048B0006B017C016091570E7091580E7627672727
:1048C0007627072E000C880B990B0E94F62A20E011
:1048D00030E046E651E40E944C2A25E33AEF4EE8E8
:1048E0005CE30E94AB2B60932508709326088093AD
:1048F0002708909328088092290890922A08A0926D
:104900002B08B0922C08C0922D08D0922E08E0926D
:104910002F08F0923008C1010E94F5182FE43EE004
:1049200046E063E080914E0E0E94BA078091550EDA
:10493000813031F441E062E080914E0E0E949D078B
:104940006091530E7091540E762767277627072EB5
:10495000000C880B990B0E94F62A2FE135E84BE6F4
:104960005FE30E94AB2B2DEC3CEC4CEC5DE30E9432
:10497000AB2B2DEB37E346E855E30E94AB2B4B0105
:104980005C016091510E7091520E76276727762751
:10499000072E000C880B990B0E94F62A2FE135E8B0
:1049A0004BE65FE30E94AB2B2DEC3CEC4CEC5DE363
:1049B0000E94AB2B2DEB37E346E855E30E94AB2B6F
:1049C0006B017C0160914F0E7091500E7627672726
:1049D0007627072E000C880B990B0E94F62A2FE1F0
:1049E00035E84BE65FE30E94AB2B2DEC3CEC4CEC46
:1049F0005DE30E94AB2B2DEB37E346E855E30E94C5
:104A0000AB2B6093330870933408809335089093F0
:104A100036088092370890923808A0923908B092F0
:104A20003A08C0923B08D0923C08E0923D08F092D0
:104A30003E0880910F089091100860910D087091C8
:104A40000E08DC01ED91FC910190F081E02D43E135
:104A500058E019950E94751D6093F1057093F20559
:104A60008093F3059093F4050E94751D0091EC0569
:104A70001091ED052091EE053091EF05DC01CB01A1
:104A8000801B910BA20BB30B883C9105A105B105CE
:104A900008F467C088E39EE00E9462189F938F939A
:104AA0007F936F93EEE5F3E0FF93EF933F922F92A6
:104AB0000E94AC2DA10161E08FE798E00E94480BB5
:104AC00082E29EE00E9462189F938F937F936F9380
:104AD00047E753E05F934F933F922F920E94AC2D94
:104AE000A10161E08FE798E00E94480B8CE09EE016
:104AF0000E9462189F938F937F936F93A0E9B3E016
:104B0000BF93AF933F922F920E94AC2DA10161E021
:104B10008FE798E00E94480B86EF9DE00E946218A4
:104B20009F938F937F936F9329EA33E03F932F9363
:104B30003F922F920E94AC2D0FB6F894DEBF0FBEAD
:104B4000CDBFA10161E08FE798E00E94480B0E9471
:104B5000751D6093EC057093ED058093EE059093C1
:104B6000EF058FE798E00E94690C0E943F031ECA80
:104B7000823061F410929000809391001092950021
:104B80001092940088BB80937100CAC8833069F486
:104B90001092A00082E08093A1001092A5001092D4
:104BA000A40089BB80937200BBC88111B9C8109260
:104BB000200182E0809321011092250110922401AE
:104BC0008ABB80937300ACC8823109F466C0B8F424
:104BD000823069F1833009F073C07093630660938B
:104BE00062068EEE9FE09093030280930202809112
:104BF0006A00837F846080936A00ED9A5FC084318D
:104C000041F1C8F1853109F05BC07093650660938E
:104C1000640688EE9FE090930502809304028091E1
:104C200069008C7F816080936900E89A47C0709327
:104C300061066093600684EF9FE090930102809389
:104C4000000280916A008C7F816080936A00EC9AF8
:104C500035C0709367066093660682EE9FE090937E
:104C600007028093060280916900837F84608093AD
:104C70006900E99A23C070936906609368068CED19
:104C80009FE09093090280930802809169008F7CD5
:104C9000806180936900EA9A11C070936B066093FB
:104CA0006A0686ED9FE090930B0280930A02809142
:104CB00069008F73806480936900EB9A81E00895A6
:104CC00080E008958F929F92AF92BF92CF92DF9231
:104CD000EF92FF920F931F931092C6061092C50693
:104CE00088EE93E0A0E0B0E08093C7069093C806FA
:104CF000A093C906B093CA0628E632E03093C406F2
:104D00002093C30625EC30E03093D0062093CF06E5
:104D100024EC30E03093D2062093D10620EC30E032
:104D20003093D4062093D30621EC30E03093D6069E
:104D30002093D50622EC30E03093D8062093D70696
:104D400026EC30E03093DA062093D9061092DC0688
:104D50001092DD061092DE061092DF061092BA065F
:104D60001092B9068093BB069093BC06A093BD0633
:104D7000B093BE068AE792E09093B8068093B70698
:104D800083E580935D0E88E68093560E8EE18093D6
:104D90004E0E43E062E088E39EE00E94071943E183
:104DA00062E182E29EE00E9407194FE16EE18CE031
:104DB0009EE00E94071941E260E286EF9DE00E94BA
:104DC00007198091F0078033A0F491E0980F909339
:104DD000F0078093F30D90E0FC01EE0FFF1F8E0FA4
:104DE0009F1FFC01E05AF84F88EB9BE09283818380
:104DF00003C08FEF8093F30D2DE230E04CE250E0E2
:104E000064E070E088EE9DE00E946E192FE230E0D1
:104E10004EE250E06DE070E08DED9DE00E946E1975
:104E200026E230E045E250E064E270E082ED9DE091
:104E30000E946E1929E230E048E250E067E270E03B
:104E400087EC9DE00E946E19812C912C8FE7A82E93
:104E500083ECB82E8092A70D9092A80DA092A90D78
:104E6000B092AA0DC12CD12C9FE7E92E93E4F92E24
:104E7000C092AB0DD092AC0DE092AD0DF092AE0DA4
:104E80000AE919E929E13FE30093AF0D1093B00D52
:104E90002093B10D3093B20D4AE959E969E97EE3F7
:104EA0004093B30D5093B40D6093B50D7093B60D50
:104EB00080E090E0A0E0BFE38093B70D9093B80D41
:104EC000A093B90DB093BA0D8092870D9092880D82
:104ED000A092890DB0928A0DC0928B0DD0928C0D4C
:104EE000E0928D0DF0928E0D00938F0D1093900D2A
:104EF0002093910D3093920D4093930D5093940D08
:104F00006093950D7093960D8093970D9093980DE7
:104F1000A093990DB0939A0D8092670D9092680DB1
:104F2000A092690DB0926A0DC0926B0DD0926C0D7B
:104F3000E0926D0DF0926E0D00936F0D1093700D59
:104F40002093710D3093720D4093730D5093740D37
:104F50006093750D7093760D8093770D9093780D17
:104F6000A093790DB0937A0D8092470D9092480DE1
:104F7000A092490DB0924A0DC0924B0DD0924C0DAB
:104F8000E0924D0DF0924E0D00934F0D1093500D89
:104F90002093510D3093520D4093530D5093540D67
:104FA0006093550D7093560D8093570D9093580D47
:104FB000A093590DB0935A0D1092320D1092310DED
:104FC0008AE491E09093340D8093330D1092350D67
:104FD0001092360D1092370D1092380D87ED93EA2E
:104FE000A0E7BEE38093390D90933A0DA0933B0D5B
:104FF000B0933C0D8CE799EDA0EABEE38093410DA0
:105000009093420DA093430DB093440D82E090E045
:105010009093460D8093450D84ED92E09093800827
:1050200080937F0883EC96E09093820880938108B8
:1050300080E091EEA0E0B0E0809383089093840834
:10504000A0938508B09386081092050D8CEB92E032
:105050009093140D8093130D1092150D1092160D50
:105060001092170D1092180D10921E0D10921D0D1A
:1050700010921F0D1092200D1092210D1092220DF2
:105080001092280D1092270D1092290D10922A0DC2
:1050900010922B0D10922C0D1092300D10922F0D9E
:1050A00087E99CE0E9ECFCE0DC011D921D922CE01C
:1050B000A93CB207D1F7119211922CE0EB3FF20715
:1050C000D1F7A7E9B8E0E7E9FAE01D922AE0A739AD
:1050D000B207D9F711928E179F07E1F71092930844
:1050E0001092940810929508109296088AEE92E019
:1050F000909358088093570880EB92E090935E0855
:1051000080935D088FE598E00E94F5188DE698E0A1
:105110000E94F51889E39CE090937C0880937B08BB
:1051200081E090E090937E0880937D0829EB35E044
:1051300030935C0820935B082EED32E030934008FA
:1051400020933F0824EA32E0309346082093450834
:1051500010924708109248081092490810924A0885
:1051600010924B0810924C0810924D0810924E0865
:1051700010924F0810925008109251081092520845
:105180002FEE3BE030935408209353089093560839
:105190008093550881EC95E09093440880934308F0
:1051A00088E992E0909314088093130885E198E0D1
:1051B0000E94F51883E298E00E94F51881E398E0D8
:1051C0000E94F51885EC95E090930A0880930908F1
:1051D00083E198E090930C0880930B0810921208DA
:1051E000109211088CE892E09093FC078093FB07E3
:1051F0001092FD071092FE071092FF071092000810
:1052000010920108109202081092030810920408EC
:1052100010920508109206081092070810920808CC
:105220008DEC95E09093F2078093F1078BEF97E078
:105230009093F4078093F3071092FA071092F907FE
:105240001F910F91FF90EF90DF90CF90BF90AF90A4
:105250009F908F900895052E97FB1EF400940E9456
:10526000422957FD07D00E945D2907FC03D04EF468
:105270000C94422950954095309521953F4F4F4FC2
:105280005F4F089590958095709561957F4F8F4FF2
:105290009F4F08950E947F29A59F900DB49F900D68
:1052A000A49F800D911D11240895B7FF0C944A29E5
:1052B0000E944A29821B930B0895A1E21A2EAA1B71
:1052C000BB1BFD010DC0AA1FBB1FEE1FFF1FA217B6
:1052D000B307E407F50720F0A21BB30BE40BF50BB3
:1052E000661F771F881F991F1A9469F7609570953C
:1052F000809590959B01AC01BD01CF010895A29FBF
:10530000B001B39FC001A39F700D811D1124911D99
:10531000B29F700D811D1124911D0895DB018F93A3
:105320009F930E944A29BF91AF91A29F800D911D2A
:10533000A39F900DB29F900D11240895991B79E0C1
:1053400004C0991F961708F0961B881F7A95C9F715
:105350008095089597FB072E16F4009407D077FDEB
:1053600009D00E94C62907FC05D03EF4909581958E
:105370009F4F0895709561957F4F0895EE0FFF1F21
:10538000881F8BBF0790F691E02D1994AA1BBB1BB9
:1053900051E107C0AA1FBB1FA617B70710F0A61B35
:1053A000B70B881F991F5A95A9F780959095BC0156
:1053B000CD0108955058BB27AA270E94F2290C94CA
:1053C0006C2B0E945E2B38F00E94652B20F039F484
:1053D0009F3F19F426F40C945B2B0EF4E095E7FB49
:1053E0000C94552BE92F0E947D2B58F3BA176207B6
:1053F00073078407950720F079F4A6F50C949F2B8A
:105400000EF4E0950B2EBA2FA02D0B01B9019001DF
:105410000C01CA01A0011124FF27591B99F0593F23
:1054200050F4503E68F11A16F040A22F232F342F6B
:105430004427585FF3CF469537952795A795F040B9
:105440005395C9F77EF41F16BA0B620B730B840BCE
:10545000BAF09150A1F0FF0FBB1F661F771F881F86
:10546000C2F70EC0BA0F621F731F841F48F48795DE
:1054700077956795B795F7959E3F08F0B0CF9395D0
:10548000880F08F09927EE0F9795879508950E9449
:10549000312B08F481E008950E94602A0C946C2B53
:1054A0000E94652B58F00E945E2B40F029F45F3F6C
:1054B00029F00C94552B51110C94A02B0C945B2BC0
:1054C0000E947D2B68F39923B1F3552391F3951B2B
:1054D000550BBB27AA2762177307840738F09F5F15
:1054E0005F4F220F331F441FAA1FA9F335D00E2E82
:1054F0003AF0E0E832D091505040E695001CCAF7EF
:105500002BD0FE2F29D0660F771F881FBB1F2617B1
:1055100037074807AB07B0E809F0BB0B802DBF0188
:10552000FF2793585F4F3AF09E3F510578F00C9457
:10553000552B0C94A02B5F3FE4F3983ED4F3869553
:1055400077956795B795F7959F5FC9F7880F911D78
:105550009695879597F90895E1E0660F771F881F64
:10556000BB1F621773078407BA0720F0621B730B17
:10557000840BBA0BEE1F88F7E09508950E94C52AA8
:105580006894B1110C94A02B08950E94852B88F08B
:105590009F5798F0B92F9927B751B0F0E1F0660FF7
:1055A000771F881F991F1AF0BA95C9F714C0B13038
:1055B00091F00E949F2BB1E008950C949F2B672FD0
:1055C000782F8827B85F39F0B93FCCF38695779567
:1055D0006795B395D9F73EF4909580957095619550
:1055E0007F4F8F4F9F4F0895E89409C097FB3EF47B
:1055F00090958095709561957F4F8F4F9F4F992320
:10560000A9F0F92F96E9BB279395F695879577959D
:105610006795B795F111F8CFFAF4BB0F11F460FF5D
:105620001BC06F5F7F4F8F4F9F4F16C0882311F0B5
:1056300096E911C0772321F09EE8872F762F05C0C9
:10564000662371F096E8862F70E060E02AF09A9564
:10565000660F771F881FDAF7880F9695879597F959
:105660000895990F0008550FAA0BE0E8FEEF1616F3
:105670001706E807F907C0F012161306E407F50746
:1056800098F0621B730B840B950B39F40A2661F0BA
:10569000232B242B252B21F408950A2609F4A1405D
:1056A000A6958FEF811D811D089597F99F6780E86A
:1056B00070E060E008959FEF80EC089500240A9464
:1056C0001616170618060906089500240A941216DD
:1056D0001306140605060895092E0394000C11F410
:1056E000882352F0BB0F40F4BF2B11F460FF04C0BD
:1056F0006F5F7F4F8F4F9F4F089557FD9058440F16
:10570000551F59F05F3F71F04795880F97FB991F20
:1057100061F09F3F79F087950895121613061406DD
:10572000551FF2CF4695F1DF08C01616170618066A
:10573000991FF1CF86957105610508940895E89445
:10574000BB2766277727CB0197F908950E94312B55
:1057500008F48FEF08950E94BE2B0C946C2B0E94CE
:105760005E2B38F00E94652B20F0952311F00C94ED
:10577000552B0C945B2B11240C94A02B0E947D2B99
:1057800070F3959FC1F3950F50E0551F629FF00194
:10579000729FBB27F00DB11D639FAA27F00DB11DAD
:1057A000AA1F649F6627B00DA11D661F829F222736
:1057B000B00DA11D621F739FB00DA11D621F839FBD
:1057C000A00D611D221F749F3327A00D611D231F93
:1057D000849F600D211D822F762F6A2F11249F57E1
:1057E00050409AF0F1F088234AF0EE0FFF1FBB1FE4
:1057F000661F771F881F91505040A9F79E3F5105A3
:1058000080F00C94552B0C94A02B5F3FE4F3983E52
:10581000D4F3869577956795B795F795E7959F5F4C
:10582000C1F7FE2B880F911D9695879597F90895DE
:10583000DF93D92F0E94532CE695D7952AED3FE0B0
:1058400049E45FE3B33A6207730784079507D79586
:105850003AF0A2EA49EC90680E94F2290E946C2B6F
:10586000ECE2F1E00E943D2CDD0F13F00E947C2C55
:10587000DD0F0BF49058DF9108959F938F937F93E2
:105880006F93FF93EF939B01AC010E94AB2BEF91C1
:10589000FF910E94922C2F913F914F915F910C9418
:1058A000AB2B0C945B2B0E94852BD8F3E894E0E0A3
:1058B000BB279F57F0F02AED3FE049EC06C0EE0F02
:1058C000BB0F661F771F881F28F0B23A6207730765
:1058D000840728F0B25A620B730B840BE3959A95F8
:1058E00072F7803830F49A95BB0F661F771F881FB8
:1058F000D2F790480C94862C9B01AC0160E070E0DC
:1059000080E89FE30C944C2A9F3F31F0915020F4A3
:10591000879577956795B795880F911D969587958B
:1059200097F90895DF93CF931F930F93FF92EF9210
:10593000DF927B018C01689406C0DA2EEF010E9491
:10594000BE2BFE01E894A591259135914591559185
:10595000A6F3EF010E94F229FE019701A801DA9453
:1059600069F7DF90EF90FF900F911F91CF91DF913A
:1059700008956F927F928F929F92AF92BF92CF9233
:10598000DF92EF92FF920F931F93CF93DF930097D5
:1059900089F4CB01DF91CF911F910F91FF90EF9090
:1059A000DF90CF90BF90AF909F908F907F906F903F
:1059B0000C94E52FFC01E60FF71F9C0122503109E2
:1059C000E217F30708F4A9C0EC01D9010D911C916D
:1059D000119706171707B0F00530110508F49BC0A2
:1059E000C80104978617970708F495C0025011095B
:1059F000061B170B019311936D937C93CF010E94AB
:105A00007D3089C05B01A01AB10A4C01800E911E45
:105A1000A0916F0EB091700E612C712CE12CF12CC5
:105A2000109709F446C08D919C911197A815B9055E
:105A3000B1F56C0142E0C40ED11CCA14DB0478F14C
:105A40004C018A189B08640142E0C40ED11C1296D6
:105A5000BC9012971396AC91B5E0CB16D10440F0F0
:105A6000B282A38391828082D9016D937C9309C015
:105A70000E5F1F4F800F911FF90191838083EB2DE3
:105A8000FA2FE114F10431F0D7011396FC93EE9351
:105A9000129741C0F093700EE0936F0E3CC06816F1
:105AA000790608F43C017D0112960D90BC91A02D61
:105AB000B7CF80916D0E90916E0E88169906E1F425
:105AC00066167706C8F48091100290911102009733
:105AD00041F48DB79EB74091140250911502841B7A
